:020000040000fa
:080000000002040000000000f2
:020000040000fa
:10040000ef3a2400005f2400000188000000000093
:100410000c000700a0a9280001002000110007001f
:10042000000020000000e000020032000000020096
:1004300000000000dc8b0200000000000040da0039
:100440000000fe004440a900404921000000e000f7
:100450000300320000002000a00188004440a800f2
:100460000000060091018800800078000000eb0089
:1004700015003700e280400032a0b4009101ba00bc
:10048000e280400032a0b4009102ba00e280400055
:1004900032a0b4000002eb00472bde00f507b200eb
:1004a000602ce10004003a000059eb008301e900f0
:1004b000fdff3e00040037006128e100010032002a
:1004c0000082eb00040007001101ba000200e00006
:1004d000e8ff3a00000006003159ba008301e90044
:1004e0000c0032002159ba008301e90008003200f3
:1004f0000400e00003003a00e280400032a0b400b3
:10050000f5ff370011d9ba008301e900faff3a007c
:100510008100e800e180400032a0b4000000060045
:100520002e04040000000000780504000000000014
:10053000881f7800a01482000000e0000100320053
:1005400000000100701482000000e0000100320091
:1005500000000100f00a82000000e000010032000b
:1005600000000100c00a82000000e000010032002b
:1005700000000100602924001004e00026003a0079
:1005800080148200911482000004eb00d2602600e7
:1005900093012000130b0700f2352f00e3c6230060
:1005a00000004100818049000804e800e80f540081
:1005b000f6ff3a0080148a0091148a00081624007d
:1005c000d2602600930120008014820091148200e2
:1005d000040b0700f2352f00e3c6230000004100a2
:1005e0008180490080148a0091148a00009cbe001a
:1005f000001e2400800f5400f1ff3a00e00e82003c
:10060000f10e8200d00a8a00e10a8a0011c0b3000c
:100610006029240001487800d26026009301200060
:100620008014820091148200ee0a0700f2352f0038
:10063000e3c62300000041008180490080148a0045
:1006400091148a00a2152400120178007f01610034
:100650004211dd0003162400030141001202be0016
:10066000d40a8a00e50a8a000089be00d00a820006
:10067000e10a82004008de0000f0a1004f0478008b
:1006800000000600800078001104b100030035006e
:100690009101b10001003c000050a00000000600e4
:1006a000800078001106b100030035009101b1000f
:1006b00001003c000050a10000000600800178000d
:1006c00000017800010037000201e8001204e00098
:1006d000fdff3a00020037000201e8008100e80057
:1006e00011407800004978000004e000faff3a0069
:1006f0000300780000000600800078000100370049
:100700000000e8001004e000fdff3a000100500086
:1007100000000600889fbe00e30440000900a1001d
:10072000808f54004a003600e38f540001003e00e1
:1007300049002000121582000200e0000200320091
:10074000820078000c003700412a240003003700a3
:10075000908f5400230036008080e800110078005c
:100760000000e000faff3a000f003700908f5400bd
:100770001c0036008080e800110078000000e000d6
:10078000faff3a0012017800412a240003003700e2
:10079000908f5400130036008080e800110078002c
:1007a000820f5000faff3a0008158200890f5400aa
:1007b000010031000904780008007800ee0007000d
:1007c0000000e00004003a00890f540020003200cd
:1007d0000804d100f5ff370008187800ed00070085
:1007e000d4ff370011017800920178006480510035
:1007f000890f50000300310012009000800878003b
:10080000070037000900410080087800920190003d
:10081000130098001100780012881400090978006c
:10082000910078000100e000050032001100900006
:100830000000e000020032000180e8000100370003
:100840000000eb0010158a000280e800010037006c
:100850000000eb004f04be0000000600881f780077
:1008600002047800ff000700080040004f047800f1
:10087000000006000000fa00881f780000047800dd
:100880003fb99700ea81570080007800e0422000dd
:1008900016010700800078000000e000020035002b
:1008a0000040eb0000f47800010078004f0478006d
:1008b0000080fa0000000600881f78008a9fbe00b2
:1008c0000185b9000a00780092ff07000004780053
:1008d0000000e000030032000a0178008000eb0015
:1008e000e7000700080078004f05be004f047800bd
:1008f00000000600889fbe008a9fbe008c1f780003
:1009000000057800010678000000e00003003a00ce
:10091000010078007fff07005e0037000100e00063
:1009200003003a009b0007000c0578006b003700bd
:10093000e38140000300a100818f51006300360075
:10094000e38f510001003e00430020008a84e9004b
:1009500019017800e30f51005c0036000208a30083
:100960005a003a0064005100808f510005003e009b
:100970000380440003185100830c780085000700b1
:1009800056003700828f510054003600402a240060
:100990001000e00041003200028144008005780030
:1009a000010037008085e8001b007800900090006f
:1009b0000100e00002003200898f5000f9ff390089
:1009c000800f510009003a00202a24000008eb00a3
:1009d0001b00780099007800908c40001b00780084
:1009e00010009000800d78000c003700810f51003e
:1009f00038003a00202a24000008eb001b00780091
:100a00001000900099007800908c40009b007800c6
:100a1000110090001000900090009800998f5100f4
:100a200003003e008c0078000a00780016003700b2
:100a30009b0078000100e0001800320011017800ee
:100a400002804000890f500014003a001900410054
:100a5000808f510011003e0011049000202a2400d4
:100a60000008eb001b007800900078001988400017
:100a70001981e9001b80e8008a00780087000700e0
:100a8000880d78008c0078009aff07000000e000d5
:100a90000200320000057800100037000c007800da
:100aa0001cff0700000478000000e000070032008f
:100ab0001981e9008a0078006a0007000a007800be
:100ac0003400070008057800040037000005eb003b
:100ad0000200370080007800d8ff37000a00780055
:100ae0004f0678004f05be004f04be000000060010
:100af000889fbe000004780090049000828f54000c
:100b0000010039008204780018007800090178009b
:100b100054000700188c4400180090000900500091
:100b200010049800080078004f04be000000060082
:100b30000400fa000100e00005003a00648057005c
:100b40000080e800e0bf9f00f1bf9f000300370076
:100b5000e0bf9f000100e900f0bf9f00e480570064
:100b60008057200061000700efb897008048eb0035
:100b70000080fa00000006000000e00003003400de
:100b800073090700e10f400001003a000000eb008c
:100b9000000006000000e000310032008080e90023
:100ba00091027800e38f52002d0036000508a30063
:100bb0002b003a00221582000200e0000200320001
:100bc000828f5000040031000208780021158a004d
:100bd0001600370003017800920190000300e00046
:100be00002003200818f5100faff390012027800b2
:100bf00004004100808f500019003900810f50001f
:100c000003003a000509420082007800070037001f
:100c10000300e0000300320005804000808f510097
:100c20000f00390093009800110198001101900005
:100c30000200e0000a00320011804000820f5000e4
:100c400007003a00202a24000008eb001100900061
:100c50001101780090084100100090009000980069
:100c6000000006008001eb000200370061f079000f
:100c70008301e800828f5100fcff3a00000006006b
:100c80008001eb0002003700817178008301e800e9
:100c9000828f5100fcff3a0000000600808f500058
:100ca0000e00310082814000830f50000b003100a4
:100cb000020240008000eb0002003700436278002f
:100cc0008100e800828f5000fcff3a00000006001f
:100cd00061f079008301e800010037008001eb003a
:100ce000828f5100faff3a00000006006200fa000d
:100cf000889fbe008a9fbe000004be0002057800e7
:100d00008300780060f92f000f004000b00007005a
:100d100088979f0099979f000000eb00a09f9f007d
:100d20009a4578000b80fb000000ea00cf04de004b
:100d300050c2b30080cf5500020032000904780091
:100d4000010037000904e9000800e0000b0034004e
:100d50001f909700080178008a0078008f91970013
:100d60000300010090979f000000e0009300320014
:100d70002f98970000004400a09f9f0009054500a0
:100d800050c2b30080cf5500040032000b04e000d5
:100d9000e3ff3a002f989700890037000000eb002e
:100da000809f9f00f0979f00e0979f00d0979f0043
:100db000c0979f00b0979f00c09f9f000900370019
:100dc000802824000080500000004000c12724003b
:100dd000e10078004f98970001007000c09f9f00cd
:100de0000a05e8001a4478008800fb0080282400e7
:100df0007c000700800078000000e000f0ff3a006f
:100e0000a0c2b300804f54000e003a00bf88970084
:100e10000180e900b08f9f0010007800b09f9f0014
:100e20000000e00005003d000000ea00b09f9f00c8
:100e30004f9897000020a000c09f9f000a05e8007f
:100e400010003700b19f9f0003fd2f00f4ff270023
:100e5000080037003f989700840f500004003200cc
:100e60006a00b9000000410003004000b09f9f00ed
:100e70000a05e8001a01fb0003004100e90f5000d9
:100e8000f4ff3600e0c2b3009a4f100004003200b5
:100e90000080eb00909f9f008a0478001c003700c0
:100ea0008a04e800a0c2b300994f100007003a007e
:100eb000bf8897000180e900b08f9f001000780084
:100ec000909f9f008a84e800110037000000eb002b
:100ed000909f9f0003fd2f00f4ff270008003700bc
:100ee0001f989700840f5000040032006a00b90078
:100ef0000000410003004000909f9f008904e8002b
:100f00001901fb0003004100e90f5000f4ff360017
:100f1000194478008800fb00802924003100070074
:100f20000000e00002003a000044780001003700b1
:100f30008904e800a87f9f0080c6b300804f54005a
:100f400004003a00994f14000a003a00664050002d
:100f500006003700c0c6b300804f540005003a00b9
:100f6000994f140003003a0065404000a07f9f00a5
:100f70008904e8000905e800c8fb2f000f044400bd
:100f800060f92f000f0040008085e800880178009c
:100f900019417800800078000b007800e400070019
:100fa0000000e00005003a00880078000b0078009f
:100fb000150007000000e00059ff3d000080eb0035
:100fc0004f05be004f04be000080fa00000006007e
:100fd0000200fa00f1bf9f00010878000080fa00cb
:100fe00000000600040037000204e00001003a009f
:100ff000000005000000e80010417800814f51001a
:10100000f9ff3a00000006000400fa00889fbe00c5
:101010008a9fbe008c1f78000004780001067800cb
:1010200070089000f80090000100500088089000bf
:10103000010050009808900001005000a80890009e
:1010400001005000b808900001005000c80890004e
:10105000810550000002220090bf9f000003230082
:10106000a0bf9f00081090000028a30018003a00bd
:101070000b00e000160034008b04780009057800ae
:10108000e28f5400020036002a00200002003700e0
:101090000900e0000b00340058009000c8019000e7
:1010a0000a017800ee805700030001005004980008
:1010b0000000e00096003200680890000000450043
:1010c000600c98008a8454004240a900ebff3c0069
:1010d000780190000200e0000b00340058009000fe
:1010e000c80190008c0078000300010050049800b3
:1010f0000000e0008600320068089000f8009000d0
:1011000001004000600c9800880c90000900e0008d
:101110001500340009057800e28f54000200360003
:101120002a002000020037000900e0000b00340014
:1011300058009000c80190000a017800ec80570028
:1011400003000100500498000000e000700032002d
:101150006808900000004500600c98008a845400e4
:101160004240a900ebff3c00180990000200e0009b
:101170000b003400e800900058009000c801900077
:1011800003000100500498000000e00060003200fd
:10119000680890009808900001004000600c9800da
:1011a000a80c90000900e000150034000905780043
:1011b000e28f5400020036002a00200002003700af
:1011c0000900e0000b00340058009000c8019000b6
:1011d0000a017800ec8057000300010050049800d9
:1011e0000000e0004a00320068089000000045005e
:1011f000600c98008a8454004240a900ebff3c0038
:10120000380990000200e0000d003400e800900072
:10121000180890008080400058009000c80190009d
:1012200003000100500498000000e0003800320084
:1012300068089000b808900001004000600c980019
:10124000c80c90000900e000150034000905780082
:10125000e28f5400020036002a002000020037000e
:101260000900e0000b00340058009000c801900015
:101270000a017800ec805700030001005004980038
:101280000000e000220032006808900000004500e5
:10129000600c98008a8454004240a900ebff3c0097
:1012a000081090000028a3001b0032000b00e00093
:1012b000190034008b04780009057800e28f54008f
:1012c000020036002a002000020037000900e0007a
:1012d0000b00340058009000c80190000a0178000b
:1012e000ee80570003000100500498000000e00069
:1012f000070032006808900000004500600c98006c
:101300008a8454004240a90003003400eaff3700f9
:101310000080eb00010037000000eb004f06780072
:101320004f05be004f04be000080fa00000006001a
:10133000889fbe008a1f78000004780001027800b0
:10134000824478000305780070c6b300804f5100d6
:1013500021003c0000c0e900804f5100de003d004c
:1013600072405000804f51004b0132000d003c0094
:101370006c405000804f51005e013c0000c0e9000d
:10138000804f5100d4003d0050c2b300804f510047
:10139000550132007c404000804f510055013a0019
:1013a000cd00370010c6b300804f5100ca00320094
:1013b00004003c0069405000804f51004d013a004c
:1013c0007200370030c6b300804f51001800320061
:1013d0000040e8000900370000c7b300804f51000b
:1013e0001e01320008003c0000c0e900804f51009f
:1013f000e400320065003c006540500080cf54009e
:101400003c013a000f00370050c7b300804f510035
:101410005e00320063404000804f51005b003200ac
:1014200065405000804f510032013a001a013700e8
:101430009180e900010a78007800900091717800ad
:1014400032013700a8609000c0c6b30080cf5000c2
:101450000a003a009400780064805000000a780086
:101460001000be004f89de00cf91de000002be00fa
:1014700002037800820378001300370010c7b3001e
:1014800080cf500003003200a0c6b30080cf5000d0
:1014900006003a009400780068805000000a780046
:1014a0003002be002003be00070037001480e900b0
:1014b000000a78001000780000027800cfa2de0059
:1014c0000503780086037800049cbe000694be00e5
:1014d000a860900080c6b30080cf50000e0032009c
:1014e00020c6b30080cf500005003a000400fb0086
:1014f000cf80de0001017800820178000a00370009
:1015000040c7b30080cf5000030032006640400067
:1015100080cf500006003a0004007800cf80de0043
:101520000101780082017800009cbe000294be0098
:101530003800be002801be00e00f5000e08f5800c8
:10154000e00f5900e08f590003003d007800900043
:10155000d1c2b3000a003700081090000018a300a1
:101560000300320078009000b1c2b30004003700dd
:101570000008a300530032007800900001c2b300bd
:10158000017578000000e8004d003700a860900069
:10159000c0c6b30080cf500006003a009400780027
:1015a00064805000000a78001002be006033b8006a
:1015b0001300370010c7b30080cf50000300320083
:1015c000a0c6b30080cf500006003a009400780017
:1015d00068805000000a78003002be002003be0080
:1015e000070037001480e900000a78001000780036
:1015f00000027800050020000600200007002000ff
:10160000049cbe000694be00a860900080c6b30093
:1016100080cf50000e00320020c6b30080cf5000b3
:1016200005003a000480fb000100200002002000b9
:10163000030020000a00370040c7b30080cf5000ed
:10164000030032006640400080cf500006003a00a0
:1016500004007800010020000200200003002000a8
:10166000009cbe000294be00081090000038a30049
:10167000140032003800be002801be00e00f500008
:10168000e08f5800e00f5900e08f59000d00320044
:1016900080c7b30080cf54000300320080c5b30080
:1016a00080cf540007003a007800900001c3b300d7
:1016b000017578008000e80009f578000080e800f6
:1016c00070049800780090000000450060049800c5
:1016d000894078006d003700a8609000c0c4b30056
:1016e00080cf500006003a009400780068805000d7
:1016f000000a78005001be004000be00050037001f
:101700009400780064805000000a78001000be0049
:101710001f080700009cbe000294be003800900025
:101720000000e00003003d0078009000d1c2b3004b
:101730000a003700081090000018a30003003200d0
:1017400078009000b1c2b300040037000008a30085
:10175000050032007800900001c2b30001757800e6
:101760000000e80070049800780090000000450038
:10177000600498008940780008007800fc010700a8
:1017800064003700a8609000c0c6b30080cf50004e
:10179000250032000a003c006440500080cf500019
:1017a0002800320000c0e80080cf50001400320052
:1017b0006840500080cf500022003a000a003700f5
:1017c00040c7b30080cf50001e003200664040008a
:1017d00080cf50001b0032006940500080cf500085
:1017e00018003a00060037001480e900000a78006b
:1017f00010007800485c90000848780045003700e9
:101800001480e900000a780010027800680890004f
:10181000cf80de000101780082017800009abe00ce
:101820000292be003b0037001480e900000a7800f5
:101830001001780068089000cf80de000089be00ab
:10184000340037001480e900000a780010007800a6
:10185000680c9000080878002e0037001180e9001d
:101860008008780010007800cf80de000101780049
:1018700082017800009cbe000294be0078009000b7
:10188000000045006004980081c7b300080078009c
:10189000240007001f0037001480e900000a7800c8
:1018a0001000780060049800580990000200e000e1
:1018b00002003d0090fb0700090037008000eb00ac
:1018c000a1010700800078000000e0000300320062
:1018d0006800900000805000010037005808900018
:1018e000100c98000b00370078009000027578000b
:1018f0000600370078009000800045000904e000f1
:1019000001003a0059c2b300894878000000e8009d
:10191000700498000000eb004f0578004f04be00f3
:10192000000006002f03b000889fbe008a9fbe0003
:101930008c9fbe008e1f780000077800b026240020
:10194000c0b79f0080c5b30080cf500008003200b0
:10195000a2252400c2b79f007740400080cf5000ee
:1019600003003a0083002000b3b79f000a0037004d
:1019700080c7b30080cf500005003200a4002000d3
:10198000b4b79f0080c5b30080cf500002003a007a
:1019900005012000b5b79f003e04be002e05be0025
:1019a00040c6b30080cf50000300320065404000c5
:1019b00080cf50000b003a00e00f5400e08f5c0035
:1019c000e00f5d00e08f5d0006003d006000b800a4
:1019d0006011b80008045000898458000a055900b5
:1019e0008b855900bfb39700e88f53000300320086
:1019f000f08f530045003a00020037003600200007
:101a00000100370046002000e00f5400e08f5c002a
:101a1000e00f5d00e08f5d0005003a005e08900079
:101a200081012000a1b79f000000e0000800320003
:101a30003fb197000200e90008006000cfb19700b5
:101a40006340780090df9f0074012000a4b79f00de
:101a5000860278008502e900050033008b05d1007d
:101a60000a85d3008984d3000884d300f9ff3700a6
:101a7000089fbe000a97be00afb397000700e900b9
:101a800021fc2f008f804000008240003fb1970072
:101a90008202e90012003700afb397008703e90024
:101aa000a7b79f0000806200cfb097006152780016
:101ab0003e00be002e01be00860378008703e900c9
:101ac000050033008381d1000281d3008180d300df
:101ad0000080d300f9ff3700009fbe000297be00d0
:101ae0003e00be002e01be00e00f5000e08f580007
:101af000e00f5900e08f5900d6003400afb39700d3
:101b00000700e000e4ff3c00d2003700ae60900028
:101b100080c6b30080cf50000b00320006003c00ae
:101b20000104e000080032006640500080cf500001
:101b300073003a0004003700c0c6b30080cf5000e5
:101b40006f003a0031003700080178000800e0001b
:101b500005003a005e08900081012000a1b79f00b7
:101b60000000e00009003200bfb197001100090039
:101b70000381d8008000fd004fb2970064407800d8
:101b800090df9f0075012000a5b79f00bfb39700ad
:101b9000110009000781d80080017800afb09700dc
:101ba0000100e90022fc2f000f014100000241006a
:101bb0000c003700bfb29700110009008501d80062
:101bc00000017800afb397008703e900a7b79f0033
:101bd0000590b90000805100cfb0970061527800a5
:101be000820178000300e000030034002fb1970069
:101bf0000200e000efff3c0003007800cf80de0031
:101c000001017800820178003a0037000806be0022
:101c1000e00f5400e08f5c0005003a005e08900081
:101c200083012000a3b79f000000e00009003200fc
:101c30003fb297006121b9000c00be00390f0700c8
:101c4000cfb297006540780090df9f0077012000b9
:101c5000a7b79f003fb297006121b9000c00be00fa
:101c6000330f07000006be00afb297000500e90081
:101c700027fc2f008f8343008083430097b79f008a
:101c8000110037003fb197006114b9000801be0090
:101c90000c00be00f20507000005be00afb19700c2
:101ca0008301e900a3b79f000801be004d050700ae
:101cb000000056001fb29700cfb29700655278001f
:101cc00094b79f000a06be00e00f5600e08f5e004a
:101cd00003003400afb397000700e000e9ff3c00c9
:101ce0004feade00cfa2de000c00be000401780047
:101cf00084017800009fbe000297be0055003700a7
:101d0000e00f5400e08f5c00e00f5d00e08f5d00ad
:101d100005003a005e08900081012000a1b79f00f5
:101d20000000e0000d0032003fb197000202780091
:101d3000cfa2de0005037800860378000800be000d
:101d40000a01be00320707004fb2970064407800d6
:101d500090df9f0075012000a5b79f003fb197005d
:101d600002027800cfa2de00050378008603780027
:101d70000800be000a01be001e070700009fbe004b
:101d80000297be00afb197000300e90024fc2f00ca
:101d90000f0242000006420020003700bfb2970049
:101da00005047800cfc4de00090578008a057800b4
:101db0000802be000a03be005fa89700efa89700c4
:101dc0007fa997008fb1970015070700d0b79f0034
:101dd000e1b79f00f2b79f0083bf9f00afb39700aa
:101de0008703e900a7b79f000802be000a03be00f0
:101df000910707005faa970000005200cfb297003a
:101e0000655678005fb09700efb097007fb19700fc
:101e10008fb99700009fbe000297be003e00be0033
:101e20002e01be00d0af9f00e1af9f00f2af9f0038
:101e300083b79f00e00f5000e08f5800e00f59007b
:101e4000e08f590003003400afb097000100e000bc
:101e5000d2ff3c003fb19700e80f510013003a0059
:101e60000e1090000038a30010003200afb19700b0
:101e7000f78f510006003e0024fc2f000f024200a5
:101e8000e4c0790000c3b30080cf500007003200e7
:101e9000afb297008502e900a5b79f0000c3b30069
:101ea00027fc2f008f83430080f37a00afb19700a7
:101eb00078811100120f98006e00900024fc2f0012
:101ec0000f0242008300420066fb07001e099000db
:101ed0005e089000800f510006003d000200500097
:101ee000000f98000e1090000040a100001798000d
:101ef0000f0037000000e0000d003d000e109000c4
:101f000074006000f00f500009003a007e08900055
:101f1000fe009000010050008e089000010050006b
:101f2000020050004240a90001003400000f980058
:101f30004f0778004f06be004f05be004f04be009d
:101f40002f03b100000006008001eb000400370001
:101f50008301e80090cf1000040032000000e80088
:101f6000828f5100faff3a000000eb0000000600eb
:101f70008f04b000889fbe008a9fbe008c9fbe0069
:101f80008e1f7800f0b79f0081f79f005001be00c0
:101f90004000be00f0979f00819f9f00929f9f008e
:101fa000a39f9f0010c6b3000ff19700804f510010
:101fb0001600320010c4b300804f510013003200ed
:101fc000ffb19700530890000000e00003003d00bf
:101fd00060002000d00998000c0037000000e000ed
:101fe0000a003a0070c6b3000ff29700804f52000b
:101ff0000300320070c4b300804f520003003a0067
:1020000010002000ffb29700d00a9800ffb09700a0
:10201000c0fa2f000f004000fe0107008001780089
:10202000e20f500015003a0030002000ffb097008a
:102030009008980010c6b3000ff19700804f510030
:102040000a00320064404000804f51000700320017
:102050000040e800804f510004003200812224003b
:102060000040e800804f510001003a00c1222400e6
:10207000ffb1970063009000160037000000e000f9
:1020800018003400300020007fb29700100a98003a
:1020900010c6b3008ff2970080cf52000a003200c2
:1020a0006440400080cf5200070032000040e8004a
:1020b00080cf520004003200012324000040e800d9
:1020c00080cf520001003a00412324007fb19700e5
:1020d000620090003158780031587800114878003b
:1020e000c601370014c6b3008ff2970084cf5200a8
:1020f0000300320010c4b30080cf520013003a0036
:102100007fb09700600190008200780000c3b300a8
:1021100080587800ffb29700e102980080c7b300b2
:102120008ff2970084cf52000100320080c5b300c7
:10213000804878000280e800ffb09700e000980037
:10214000710090000080e800f00098000300e000bb
:1021500005003a00e3979f0064fb2f000f01420047
:1021600003077800a001370085232400e5b79f000e
:1021700010c6b3008ff0970080cf500005003200ea
:1021800010c4b30080cf5000a7003a00922424006e
:10219000e2b79f00ffb19700530890001e02200095
:1021a0000000e000010035000007e8000e02e80032
:1021b000d4b79f006022b8006033b8007f909700ca
:1021c0008f9897001f999700af999700c80607004e
:1021d000ffb097003102be002103be000000e00006
:1021e00004003d000400be000601be0003f0a20092
:1021f000020037000400be000601be00f0979f00f9
:10220000819f9f00929f9f00a39f9f006f919700c7
:1022100064015100e2979f00c3fa2f008f814100b3
:102220006a8041000048eb006b824100c4b79f0008
:1022300031003700c201200003002000e5fa2f0022
:102240000f8042009f0107007f9497008f9c9700aa
:102250001f9d9700af9d97000800be000a01be00b9
:10226000a80607000006be005fb197006701510095
:10227000d2b79f004240a9000a003400cd060700f3
:102280000002be000203be000800be000a01be003c
:10229000072c0700f0979f00819f9f00929f9f004f
:1022a000a39f9f00cfb1970067804100710020007d
:1022b000050037006f6066004c6add004466de0092
:1022c0000c067200c4eede00e00f5600e08f5e00e8
:1022d000050034008100e900e18f4000f5ff3a007d
:1022e000010037000060eb008100e900fdff3b00ca
:1022f00067004000c0b79f00dfb297000500e00014
:10230000090034006022b8006033b8007f90970065
:102310008f9897001f999700af999700a80607001c
:102320000000e000c3ff3c0060fb2f008f00400076
:102330004fb19700010051000000e9008e0f5000de
:1023400001003d00000778000e00e00003003d00a2
:1023500073fb2f000f8141002c003700800f5700c6
:1023600005003d000e80400010409000f3c0b30017
:10237000e74f500001003c008041eb00c4fa2f0001
:102380000f0242000e0042006a0040008e007800fa
:10239000010037000000e9008100e90010417800e9
:1023a000834f5100fbff32000107e800efcf5100df
:1023b00001003a000248e8000100e0000300350097
:1023c00075fb2f000f814200060037000e07e80062
:1023d0006f90970064004000e0979f0061fb2f0022
:1023e0000f8140008e0041008e017800030037000d
:1023f0001100fb006fb29700e44878008301e90008
:102400008100e9000300e000f9ff3d00ffb2970002
:10241000550890000000e000f3003d000e00e900c8
:10242000d00a9800f00037007f9497008f9c9700a7
:102430001f9d9700af9d97006022b8006033b800e1
:102440000800be000a01be00290607000000e000e7
:1024500005003d000bf0a200f8979f00899f9f00a8
:102460009a9f9f00ab9f9f006f9097007259270023
:102470000280b900026a280013002000f803070058
:10248000e4005000e1979f0015003b00e38010003e
:10249000c0ff2f00008460000800ea00e0979f0062
:1024a0007f9097008f9897001f999700af9997009a
:1024b000091e2400070037000808a30003003200ab
:1024c0003902be002903be00a93007000884d100ec
:1024d000e88444000800e000f7ff3c001b003700e0
:1024e0000100e0001d003400c0ff2f0000806000ec
:1024f000e0979f00000478006000b8000200200010
:1025000003ff2300091e2400070037000808a3006a
:10251000030032003902be002903be0094300700d8
:102520000884d100e88444000800e000f7ff3c0084
:102530000002be000203be007f9097008f989700b4
:102540001f999700af999700042e0700f0979f00fe
:10255000819f9f00929f9f00a39f9f00ffb09700c5
:102560005109900060c6b3008ff1970080cf5100f1
:10257000040032006100200060c4b30080cf51002d
:1025800002003a006f929700ea0042000107410002
:10259000f30f5700010034003e01200000c3b300d8
:1025a000e0779f0075fb2f008f824200b5b79f0038
:1025b000330037000800be000a01be00d105070045
:1025c0000006be00680757004240a9000e00340014
:1025d000f80507000002be000203be000800be00ae
:1025e0000a01be00322b07006022b80046782d0099
:1025f000771924005e300700f0979f00819f9f00ad
:10260000929f9f00a39f9f003fb0970068044000e7
:10261000890020000d003700a400200005002000e4
:102620000c01be00e0fd2f000f004000200107005c
:102630007fa897008fb097001fb19700afb19700a8
:1026400004c3b300046441000006be00e00f56005e
:10265000e08f5e00060034008904e900e18f440049
:10266000edff3a000200370000c3b30000647800b9
:102670008904e900fcff3b0068044400b8b79f00f0
:102680000e00e0000b0034007f9497008f9c9700b1
:102690001f9d9700af9d97006022b8006033b8007f
:1026a0000800be000a01be00c50507000000e000ea
:1026b000c0ff3c00c5fa2f008f8242006a804200b2
:1026c000bfb09700008050008001e9006f91970033
:1026d000e70041006b81420000c3b30001003700f6
:1026e0000201e800924f1000fdff320074fb2f0042
:1026f0000f00420080804000828050000080410036
:1027000002025000e1979f00ffb29700d5099000a8
:1027100060c6b3008ff2970080cf520003003200f2
:1027200060c4b30080cf520002003a008100e8008c
:102730000a00370050c6b3008ff0970080cf5000da
:10274000050032008000eb0050c4b3008ff2970008
:1027500080cf520001003a001100200001874100a3
:102760008e0f520001003d00040778000e00e000cb
:102770001d003500840f570005003d00e2407f003a
:1027800095c3b30040c3b30080cf500001003c00ac
:1027900005c3b3000e0041008000e9008e017800ff
:1027a000010037008100e9008301e900114278004f
:1027b000854f5200fbff32000307e80090c3b300cf
:1027c00080cf520001003a008448e8000300e00096
:1027d00005003d000201e9000e07e8006f90970038
:1027e0000000e800e0979f006f9297008e0178004c
:1027f0008ff097007fb09700ca0007004f0778005e
:102800004f06be004f05be004f04be008f04b1004e
:1028100000000600889fbe008004780066844000a7
:1028200000ff2700180060004401de00f07f200058
:10283000800f51000e003a00800ceb001804780065
:102840006f0064001c003a00210090000000e000ce
:1028500019003a00110090000000e00016003a0054
:10286000100020001100e0001400320012003700b8
:102870000200e00005003c0001007800dd010700d7
:10288000000178000000e00008003c00f000280093
:102890001800600001fe2300010c700020c02f0012
:1028a000800c41000080eb0004003700800ceb003e
:1028b0000000eb0001003700200020004f04be00a4
:1028c00000000600889fbe008a1f78008c9fbe0013
:1028d000000478000206be00e604400019017800fa
:1028e0000200d0004505de008a007800f07f20005d
:1028f000800f55000c003a006f00610067003a003d
:10290000280090000000e00064003a0018009000e9
:102910000000e00061003a00100020001800e00014
:102920005f0032005d0037000a00e00007003a0057
:1029300008007800af010700800078000000e00088
:10294000020034000a007800550037006108b90021
:102950000c0140008d814800e07f2000800f510075
:10296000e08f59000d0034001900e00004003d0024
:102970006000b8000200200003ff2f0003003700b2
:102980006000b8000200200003ff2700009cbe008a
:102990000294be001000200041003700e00f5100fb
:1029a000e08f590005003400f00028001900600095
:1029b000c410dd00810c700036003700190078006b
:1029c00001002800010360006f0060000040a000cb
:1029d000800c780061015100e0815900c0fc2f009b
:1029e000f1ff2f00800f5100818f590006003d003c
:1029f000860c78000000eb0020049800100498007a
:102a0000000c780026003700020078000881e800fa
:102a1000e400440005003700120c7800110978002a
:102a200099087800800ceb0070004000f00f400027
:102a3000f9ff34008002ea00150032008881e800c6
:102a400070821200980078008508de00130078007c
:102a50000400dd00008c70006401440093007800e5
:102a60008508de00120078000400dd008089700017
:102a7000920078008508de00190078000400dd006f
:102a800000897000190078000500de00800c7800d5
:102a9000990c73000080eb0001003700200020003b
:102aa0004f06be004f0578004f04be000000060030
:102ab0000400fa00889fbe008a9fbe008c1f780029
:102ac0000006780092bf9f00a3bf9f000404be00d1
:102ad0000401be001fb89700afb89700600207005e
:102ae0000005be000001be000800be00bd010700d9
:102af0001fb99700afb997000000510081805900bd
:102b000020069800310698000a8ebe000c0078005e
:102b10004f0678004f05be004f04be000080fa004b
:102b2000000006000e00fa00889fbe008a9fbe00cb
:102b30008c9fbe00000478000145780002067800f2
:102b400083047800840678000300e00002003c0063
:102b5000190020008c2a240060c6b300804f550065
:102b60000e00320060c4b300804f55000b003200ed
:102b700070c6b300804f55000300320070c4b3002c
:102b8000804f55009c003a00e48f460080003500dd
:102b900058089000808f56007d003d008d05e800ac
:102ba00060c6b300804f55001000320060c4b3000f
:102bb000804f55000d003200081090000038a3002f
:102bc00004003a0058089000808f540001003d0036
:102bd000590c9800580890000b005000500c9800b9
:102be00002003b000000eb00500c98000b00e000de
:102bf00027003c00180990006800900001c3b30052
:102c0000017079008201e800130c980058089000c8
:102c10000000e00003003c00081090000038a30012
:102c20000500320068009000e1c2b30001f07900b5
:102c30000280e800100c9800d80890000b00ea0011
:102c4000808f500001003d008105ea000b00ea0082
:102c5000200c980001804500500c9800890f50000e
:102c600001003d0080047800390c98006800900055
:102c70009808900001004000090178008c0078005d
:102c8000f8f7070058089000090050001a003700b4
:102c900098089000680090008b8f540018003d0049
:102ca00001004000090178008c007800edf7070072
:102cb0001808900000814400120c9800098055000b
:102cc000200c9800580890000000e00003003c0031
:102cd000081090000038a30006003200e8009000c1
:102ce000e0c2b30080707900380890000000e8006e
:102cf000300c980058089000400c9800a60037004f
:102d0000010040000b0178008c007800d5f7070027
:102d10001808900000814500120c98008b84540024
:102d2000580890000000e00003003c0008109000ec
:102d30000038a3000500320068009000e1c2b30033
:102d4000017079000200e800100c9800580890000b
:102d5000890f500001003d00800478006800900059
:102d600098089000010040008b004600090178009f
:102d7000bcf707001808900000804400100c980071
:102d80005808900009005000200c9800820037007d
:102d900070c6b300804f55000300320070c4b3000a
:102da000804f550014003a0058089000808f54005e
:102db00004003d00081090000038a30001003a0014
:102dc000590c9800580890000000e900500c980039
:102dd00002003b000000eb00500c980070c6b300ee
:102de000804f550002003a005ac6b3000b0037006e
:102df0005ac4b3000900370010c6b300804f550015
:102e000002003a000ac7b3000400370010c4b30040
:102e1000804f550001003a000ac5b3001809900020
:102e2000680090003c7079008201e800130c980063
:102e30000c027800580890000000e00003003c00fd
:102e4000081090000038a30017003200e80090003e
:102e5000e0c2b30080f079008280e800110c980095
:102e6000580890000000e0000f0034008904e900d9
:102e7000890f500001003d00800478006800900038
:102e800000804000090178008400780075f7070091
:102e90001808900000804400100c9800580890001a
:102ea00009005000200c98006800900098089000dd
:102eb000010040000086e8000a5878008000780091
:102ec0000d00e00004003500b0c2b3008048780077
:102ed0008c04780004003700d0c2b300804878002a
:102ee0008c0478008d06ea008005eb000a003700ac
:102ef000a20020008d007800708057008900070034
:102f00000fb897009fb897007a81550001f17f00b4
:102f10008b05e800800678000d00e000f4ff3c001f
:102f2000e18f550009003c0050c6b300804f5500aa
:102f30000300320050c4b300804f550003003a0034
:102f400000c3b300005e78008c0478000b00e00042
:102f5000040032000b00e900fa80570000804000b6
:102f60000600370000c3b300805c7800050037001e
:102f70008b05e90002c3b300a05c41000b00e00038
:102f8000fbff3c00680090009808900001004000a2
:102f900000805400300c980008109000740060000d
:102fa000f00f50000e003a00780090009808900052
:102fb00001004000a808900001004000b8089000ff
:102fc00001004000c808900081004000780890008f
:102fd000808f500002003d0001005000000c98005e
:102fe0004f06be004f05be004f04be000080fa0031
:102ff0000000060000017800e601400013007800a0
:1030000001002800810360006f00600080097800e3
:1030100012003a00220090000000e0000f003a0089
:10302000120090000000e0000c003a0016002000a2
:103030001200e0003800320008003700e4004100d0
:10304000910978000280e800900878001208780062
:103050000009eb0070035300010037001600200048
:103060001300e000f5ff3200e40241000282e800b4
:103070001100370080004000150078004f00de008e
:1030800080897000950078008180400014007800ed
:103090004f00de00808a700094007800818040003c
:1030a000120078004f00de00008a700012007800e5
:1030b000000940000603e90013007800ef0f5000fc
:1030c000ecff36008282e800640241000e00370007
:1030d0009200d100150078004f00dd0000897000db
:1030e0009500d100140078004f00dd00808a700048
:1030f0009400d100130078004f00dd00008a7000ba
:103100009309d1000603e80013007800ff0f500078
:10311000efff3e00ef09600093897300060078001e
:103120000000060002027800809fbe001100090026
:103130008200d800000178004f00be0002a2b90052
:1031400084805000110098000208780000000600fa
:10315000889fbe0080047800601582000000e000b7
:1031600003003a00100007000000e0000a003500ec
:10317000601582000900e00002003a0000047800b7
:103180000600370000047800090040000600070030
:103190000000e00001003d000084eb000800780022
:1031a0004f04be0000000600800078000000e00030
:1031b00004003a00e02a240060158a00010178002a
:1031c000060037000081eb00e03a2400808f5000b9
:1031d00002003e0061158a000001eb000200780049
:1031e00000000600020ab900001bb9000200b80086
:1031f000810042008100430000000600889fbe005d
:103200008a9fbe008c1f7800a400070010022000d7
:1032100002003b00b08a8800a80037008a006200e4
:103220006408e10002003a00b08a8800b00037006c
:103230006108e100fcff32000800be0003047800d2
:103240005e06070001f0a100bc08070008f0a60018
:10325000040037000001be0091042400b0fd2000ee
:103260007c04070009f0a70001f0a2009c003700d1
:1032700004002000a1003700f4ff2f00ee0037000b
:1032800014002000ec003700889fbe008a9fbe001b
:10329000010578000100e0000400350008003c0052
:1032a0000000e00020003200050037006000100040
:1032b000e080180002003b0001f02c001a003700eb
:1032c0000004be006011b8006b0920000982cf0025
:1032d000020039000882cf000441b0006942520068
:1032e0000e00320008003b00828171006101640021
:1032f0008904d1000884d3008b05e8000442e8006b
:10330000f9ff3a00050037000804440089844c00a6
:103310008b05e9000442e900fbff3a00e1000700e9
:103320000af0a70001f0a0004f05be004f04be0048
:10333000000006000001be00000107000470a700a5
:1033400003f0a10003f8a30013003a006509b100df
:1033500010003200090035006928e1000200350044
:1033600001002800000005000000400081804800a6
:103370008502e900fcff3a0000000600f88f4200d9
:10338000050035008100d1000080d3008502e800ef
:10339000fcff3a00000006008000eb000000050082
:1033a0000001be00e50007000470a70003f0a100c3
:1033b0006509b100160032000d0035006828e100f3
:1033c00006003500f0ff2f00f1ff27000300e000aa
:1033d00013003b0001002800000005000000400031
:1033e000818048008502e900fcff3a0008003700b0
:1033f000f88f420002003c008000eb000000050056
:103400008100d1000080d3008502e800fcff3a0073
:103410000300e00002003b0060001000e0801800a4
:1034200000000600811f78000100e00002003d005e
:1034300060001000e08018000300e00002003d0082
:1034400060011100e0811900360907004f00e0001b
:1034500002003b0060001000e08018000000060041
:10346000839f68000100e00002003d006000100042
:10347000e08018000300e00002003d006001110040
:10348000e08119002a0907004f00e00002003b001c
:1034900060001000e0801800000006000004be007c
:1034a000a60007000003be000405be000200be0027
:1034b000a2000700844f7500000006000200be0055
:1034c0006450e100050036006420e100020036008f
:1034d0000968a30001003a000800be000160a000d6
:1034e0004f0678004f05be004f04be0000000600e6
:1034f000f0ff2f00f1ff2700f9ff3700889fbe0083
:103500008a9fbe008c1f78004f26dd00e3ff070076
:10351000eaff33006120e100430032006250e10025
:1035200041003e003e0039006420e1003c003200d2
:10353000058255000f003b000402e80038003a0005
:10354000800f5300818f5b00350034000800be00ff
:1035500003f0a10001f0a60003f0a0000cf0a7000a
:10356000c5030700deff37000603430087834b00d7
:103570000c4646000005530081855b0002003300c5
:103580000a03be000c00a0000402e900f6ff3b00a5
:10359000850578000602430087824b0004003a004c
:1035a0006000b80009f0a70001f0a000ccff3700d0
:1035b0000002520081825a000704e0000400330038
:1035c0000603430087834b008b05e900faff3700b1
:1035d000090578000604be000203be006011b800b1
:1035e00030000700e00f5200e08f5a00070035005e
:1035f00002003c000c08a300040032000601be00db
:1036000003f0a0000cf0a7009b0307000a856800e8
:1036100001f0a1000af0a70001f0a000b0ff370000
:103620000800be00aeff3700100220000cf0a6001c
:10363000b08a8800aeff3700889fbe008a9fbe0018
:10364000841f780095ff07004f00780011003300b9
:10365000f0ff2f00838f6c0006003b00040565001f
:103660000a00a7000800370009f0a600100020009b
:1036700008003700820f5400838f5c00030039007c
:103680001000200001003e000000200009f0a7000b
:103690000000ea004f05be004f04be000000e0003d
:1036a0000000060081002000618055000b003d00f5
:1036b0000b00200061fe2f000100e1001d0034001e
:1036c00082817100610164008904d1000884d30003
:1036d0000000e800faff3a00710020006100640079
:1036e0000300700002006000090032006104440021
:1036f000e0844c000988a500050032008b05e80035
:103700006808e10002003a008904d1000884d3006f
:10371000f20f20000258e10005003d00c75ddd000a
:10372000f907b200898075000800780000000600e3
:103730000bf827008b00780000000500c70ade00a8
:10374000f107b200f50fb20008003200e1cf4200ed
:10375000020032000170a00024000500810f7000fb
:10376000010032000408050044000500810f7000cc
:1037700002003a00140005008502e9000000400044
:1037800081c04800fcff3b000170a0002400050040
:1037900081037800e9ff07000001be006000b80067
:1037a0000478a30013003a006220e10015003e00f7
:1037b0000d0039008301d1000281d3008180d30044
:1037c0008301d1000281d3008180d3008301d10025
:1037d0000281d3008180d3000538b000c42add0007
:1037e000f300b2008381720007f0a70003f0a0008d
:1037f00000000600f3ff2700f2ff2f006110b90060
:10380000fbff370003ff2700f7ff3700881f780012
:10381000000478005001be004000be0004004000db
:10382000858048000601490087814900009cbe0050
:103830000294be000400e1000588e1000690e1006a
:103840000798e10002003100680044001008e80019
:103850004f04780000000600f4874700889fbe00f0
:103860008a9fbe008c9fbe008e1f78000205be009e
:103870000004be00d4b79f00e5b79f00f6b79f00d5
:1038800087bf9f000000eb00c0b79f00b0b79f004c
:10389000a0b79f0090b79f0080b79f000d04200045
:1038a000bfb097004fb09700000140000000e0005b
:1038b0000f003d004f08de0000007100c0b79f0000
:1038c0009e00070001003d0012002000a10007003b
:1038d00001003d0012002000a6000700b100070013
:1038e000b60007000f004000c8ff070022003700a5
:1038f0004f08de0000067100ccb79f008f00070064
:1039000001003d00120020009200070001003d0070
:103910001200200097000700a20007000fb29700d6
:103920009fb297002fb39700bfb39700a90007007d
:103930000000520081805a0002015b0083815b001d
:1039400080b79f0091b79f00a2b79f00b3b79f00b9
:103950000007eb009f0007000020e10001a8e10044
:1039600002b0e10003b8e100010031001e002000b8
:103970000e005600c0b79f004fb297000400e00051
:103980000700350010002000010020006011b80081
:1039900008047000898470000a0571008b8571002d
:1039a0008d06e900beff3a000400e00003003d0080
:1039b000820007000f00400094ff07004fa8970007
:1039c0000000e00004003a000fb497009fb4970095
:1039d0002fb59700bfb59700940007004f077800f8
:1039e0004f06be004f05be004f04be004f01b100a0
:1039f00000000600881f780018002000881f78004b
:103a000095ff07008f87e9004f047800000006004b
:103a1000801feb0090ff07008f87e9000000060081
:103a2000889fbe008a9fbe008c1f78006e00070032
:103a300007003d0073000700e00f5b00e08f5b00b4
:103a400007003d00320007000006eb0004003700cd
:103a50003400070002003d002a0007001c0020007f
:103a600072000700e3ff07000203be000002be0071
:103a70000c00e00001003200220007000400be003c
:103a80000601be004f0678004f05be004f04be0081
:103a900000000600889fbe008a9fbe008c1f780031
:103aa0005100070005003d0056000700e00f5b00d5
:103ab000e08f5b0006003d0004003700190007009e
:103ac00003003d006000b8006011b800100007005e
:103ad00056000700ceff07000203be000002be0032
:103ae0000c00e00001003200060007000400be00e8
:103af0000601be004f0678004f05be004f04be0011
:103b0000000006006000b8006011b8000000370037
:103b1000040250008582580006035900878359002b
:103b2000000006000006eb00e00f5200e08f5a0094
:103b3000e00f5b00e08f5b000000060001804000aa
:103b400090b79f000001eb008fb097000100e000ec
:103b5000000006000200700090b79f000180400046
:103b600080b79f000001eb00ffa897000100e00074
:103b7000000006000200700080b79f000180400036
:103b80006faa9700cf20de0001007000f0af9f0009
:103b900004024200250007004f18de0000027200f8
:103ba00000000600e4af9f000804440089844c0034
:103bb0000a054d008b854d00000006003fb29700be
:103bc000cfb297005fb39700efb3970000fe2f00ce
:103bd000000006003fb09700cfb097005fb197009c
:103be000efb19700000006000205be000004be0011
:103bf000e00f5000e08f5800e00f5900e08f5900af
:103c0000000006006000b8006011b8000804500011
:103c1000898458000a0559008b8559001c00200032
:103c2000e00f5200e08f5a00000006000800be00be
:103c30000a01be0000000600889fbe008a9fbe00e9
:103c40008c1f78000205be000004be000006eb00d9
:103c5000e00f5000e08f5800e00f5900e08f59004e
:103c600007003d006000b8006011b8000804500073
:103c7000898458000a0559008b8559001c002000d2
:103c8000e00f5200e08f5a00e00f5b00e08f5b0016
:103c900002003d000f0007000c00a2000800be005b
:103ca0000a01be004b0007000203be000002be0076
:103cb0000c00e00001003200060007000400be0016
:103cc0000601be004f0678004f05be004f04be003f
:103cd000000006006000b8006011b8000402500047
:103ce00085825800060359008783590000000600aa
:103cf0008f1fd100590007008f87e9000000e00006
:103d0000000006001400fa00889fbe008a9fbe00d3
:103d10008c9fbe000004be000205be006800470084
:103d20000a90be000890be00750007000070a70052
:103d30000bf0a100304320009e02900080825200d0
:103d4000b0fe2f000028e10011003d00b0fc2f0064
:103d50000028e100150034001e0990008e08900034
:103d60007e0090000501b0000201d1008180d300e7
:103d70000080d3008502e800fbff3a000b00e00062
:103d80009a003b0060001000e080180097003700a8
:103d9000f0ff2f00f1ff27000b00e00093003b0035
:103da0000100280000002000900037006000b800eb
:103db0008e0037004f89de008201780090003700c6
:103dc000809feb00250007008f87e9000000e000de
:103dd00000000600889fbe008a9fbe008c9fbe0028
:103de0000404b8000506b8008904460060854e004a
:103df0000606b8000a054600e0854e000706b80032
:103e00008b054600040eb800890446000a854e0062
:103e1000e0854d00050eb8000a0546008b854e0072
:103e2000060eb8008b0546000416b8000a054600c9
:103e30008b854e000516b8008b054600041eb800a1
:103e40008b0546000800be000a01be004f06be00fa
:103e50004f05be004f04be0000000600889fbe0054
:103e60008a9fbe008c9fbe000404be000605be00f3
:103e7000809fbe00829fbe00980007000406780065
:103e80000800be000a01be00940007008406780006
:103e90004f03be004f02be008d4f76007fb09700eb
:103ea00013003300f0ff2f008b8f6b0006003b00e8
:103eb0000d0666000c00a7000a00370007f0a600f8
:103ec000100020000a003700880f5200898f5a0026
:103ed0008a0f5b008b8f5b0003003900100020000d
:103ee00001003e000000200007f0a7000000ea00eb
:103ef0004f06be004f05be004f04be000000060086
:103f0000800078005002be005003be004439de003d
:103f1000f700b200f37f20000301610009003200c6
:103f20000218e10016003a00850172008301730057
:103f3000838173000008200015003a004000200033
:103f400013003700850172008301730083817300c1
:103f500005003a0004a8be0006a8be00100020001c
:103f60000b0037000201e9000402420085824a008a
:103f700006034b0087834b000748a300f9ff32007c
:103f80000740a00004a8be0006a8be002000200034
:103f90008000980092009800000006006804470026
:103fa0000294be000094be00fc0447008694be004c
:103fb0008494be0009007800d1ff07000800780053
:103fc000cfff070099007800814f70000b003b0085
:103fd0000800be00530007004f00b1000300370087
:103fe000f3ff2700f2ff2f006110b9004f06be005b
:103ff0004f05be004f04be000080fa00000006001e
:10400000889fbe00830478000300e0002c00350088
:1040100003003c00008270000402710026003200a0
:1040200036432000c50020008383cf000a003900fa
:104030000541b1008283cf00070039000541b1007e
:104040008183cf00040039000541b1008083cf0097
:10405000010039000541b10085c353006022b8005a
:10406000120032000a003b0084827200610260008c
:104070008301d1000281d3008180d3000080d3006e
:104080000603e8008743e800f7ff3a00070037001f
:1040900000004000818048000201490083814900fe
:1040a0000603e9008743e900f9ff3a002b00070007
:1040b00009f0a70003f0a0004f04be0000000600b6
:1040c00060001000e080180060011900e081190014
:1040d000d3ff3b00033e2c00f7ff370005ff27000e
:1040e00005826100070032000428e100010032006f
:1040f000240005000600070001003a004400050006
:104100000408050002000700f9ff3a00140005004a
:104110006f82610081027000850271008502720069
:1041200000000600e48240001078a300070032007f
:10413000640240001178a3003400be001401be00e8
:10414000040032000330a700000006003500be0066
:104150001501be000330a00000000600180020007a
:1041600057002000080453000d003d000600200009
:1041700097fc2f000740e1001e003400848272008b
:10418000610260008301d1000281d3008180d300ed
:104190000080d3000804e800f8ff3a004700200040
:1041a0006104600005047400040464000d00320022
:1041b00061004000e080480060014900e081490062
:1041c00003b8a500070032000603e8006538e100e7
:1041d00004003a008301d1000281d3008180d30022
:1041e0000080d300f87f20000830e1000300350094
:1041f000080378006000b8006011b8004433dd00a7
:10420000f300b200830173000000060023c2bf0068
:104210000004a20061006000000006008000780039
:1042200020c2bf0066406000e64f5000010032002f
:10423000f10fb2002111880000000600038368001e
:104240000700280007036300470ade000480a1007e
:10425000c71ade000580a100f70f20000720e1004b
:10426000420032000728e10040003200889fbe0073
:104270008a9fbe008c1f7800f107b200f307b200de
:104280000400e000640032000170a0000500e000be
:10429000680032000370a00085054200eb07b10002
:1042a0000204b8000302b8008484440060854a0018
:1042b000020ab800848444000a854a00030ab80050
:1042c00004054500040033000804d0008984d200ae
:1042d0000a85d2008b05e9006158e1003d003500f8
:1042e000021020000901610003082000898161009b
:1042f000f70720008783640008867300c84cde003f
:10430000c853dd00878474004855de000300e000d8
:104310000600320082037600040032008904e800bf
:1043200060054d000a88a3000c003a00f70f20003a
:104330000758e10044003d000a70a100c75ddd00a0
:104340000a8575008a007300090078004f0678001e
:104350004f05be004f04be00000006000a05d10054
:104360008984d3008b05e800f0ff3700881f7800b0
:1043700006047800f0020700070278000001fd0043
:104380008101fd00ec0207008702780085037200be
:104390000778a300050032000001fd008101fd0047
:1043a000ff0207004f04780000000600850372003a
:1043b0000748a30003003200f0ff2f00f1ff2700a1
:1043c000f8ff37000000200001f827008880700007
:1043d000f4ff3700880178004848dd0080817100d3
:1043e0004848de00c850dd0001007000c850de0003
:1043f000060478000b017800f20207008880700044
:10440000d2ff37000500e000050032001700200051
:10441000160307009dff370081037000f9ff3a0083
:10442000860078004f0678004f05be004f04be009e
:104430000000050083037100f9ff3200270020000f
:104440000a03070094ff370001f8270086807000f8
:10445000f4ff370007f82700078361000638e10002
:1044600004003a00f707200087836100870371008a
:1044700001003a0003f0a200889fbe008a9fbe00a0
:104480008c9fbe00470ade000480a100c71ade0030
:104490000580a1000700280007856000878561006e
:1044a000f70f20000720e1009e0032000728e100fe
:1044b0009c003200010678000400e000b4003200e5
:1044c000f7072000878060000170a0000500e00071
:1044d000c0003200f7072000878161000370a00050
:1044e000050652000f003a000b50e1000b003200ad
:1044f0000308e10002003a000200e1007e00320001
:104500000204500083845800040031000001fd00c3
:104510008101fd008402fd008a05fd006044b800b1
:10452000210037000520e10005003d000001fd00ed
:104530008101fd008402fd008a05fd000506520090
:104540007a60e100050035000170a1004722dd001e
:10455000848070008a807000630037006044b80077
:10456000ef02660007ff2f00070666000500e00067
:1045700006003400f08312008714dd000511de0010
:10458000071bdd00060171008519de007060e10087
:1045900005003500090478008204780003017800e2
:1045a0008001eb00700656000b50e10003003a005a
:1045b00002004000838048000400370060041400bb
:1045c000e0841c0002005800838058000188a3008a
:1045d000060032008100d1000080d3008984d3001e
:1045e0000884d3000402e800270037000178a30004
:1045f00025003a000100e000030032008186cf0070
:10460000698656000a0037008c0020000000e00098
:1046100004003a0009007800880478000004eb00e8
:10462000700252008086cf000d0646000c06e9009d
:104630007060e10006003500800078000900780015
:10464000880478000004eb007006560070025200e7
:104650000c00e0000c0034008c08dd00f0031600b4
:104660000703de00868070000c00dd00074bde00d3
:10467000060070008c4cdd000743de008684740069
:104680000c44dd000c0252006120e10020003500e6
:10469000610160000700280087816400f7ff2700a0
:1046a00087836400070374000300e0000600320003
:1046b00082037300040032000000e800e08048003c
:1046c0000188a3000e003a00f70f20000720e10048
:1046d0004a003d000170a1004722dd008100720008
:1046e0008a8070000000be004f06be004f05be006d
:1046f0004f04be00000006006000b800faff37005b
:104700008100d1000080d3000402e800eeff3700f2
:1047100004017800890174002a0207008a80700071
:10472000f1ff370004020700070278000001fd00d6
:104730008101fd00000207008702780085037200f6
:104740000778a300040032000001fd008101fd0094
:1047500013020700e4ff3700850362000768a30027
:10476000080032000b50e10003003200f0ff2f0080
:10477000f1ff2700dcff37000001fd008101fd0093
:10478000d9ff37000468a300d7ff3200faff3700d3
:10479000f8ff2700888360000b003a000000e0006b
:1047a00009003a0083036400828373000200320030
:1047b0000200be00ccff37000b50e100ceff3a00f4
:1047c0000200be00c8ff3700140020008100640012
:1047d0003eff3700f8ff27008883610004003a009d
:1047e0000200e00002003a008c007800beff3700b3
:1047f000150020008301640039ff370001f827000d
:104800000000200081007500b7ff3700889fbe00c0
:104810003400f80003002000a301880003002800f2
:104820008384600001f0a100b2fd200093f4230016
:1048300002015000838158000c003100020020006a
:1048400003982300020150008381580003003900bf
:1048500035020700390007006602070089806800fa
:104860003400f9004f04be00000006008a9fbe001d
:104870008c9fbe000200200003982400000151001c
:10488000818159001e00390027020700ac02070091
:104890000005eb000100e00003003d006000100097
:1048a000e08018000a002800630362006333b80048
:1048b000066001002100070000000000080037002a
:1048c0006d0007000005eb00050037001b00070026
:1048d0000af0a20002003700670007000a00280063
:1048e00044020700898068008a8068004f06be0085
:1048f0004f05be003400f9004f04be000000060062
:104900008d0107000778a300050032000160a000b8
:104910008980700012022000b28a8800f3ff3700fd
:104920000768a30003003200f0ff2f00f1ff27000b
:10493000f8ff37006000b800f6ff37000100e00024
:10494000120032006f03410010003500809fbe004e
:10495000821f78000002be0082017800be020700bc
:104960006403410003003d0043002000447c2c0010
:104970000200370053002000047c2c00e1020700f5
:10498000cf0178004f02be00b3020700000006000e
:10499000889fbe003400f80003002000a3018800b7
:1049a000030028008384600001f0a100b2fd200014
:1049b00093f423000201500083815800100031005d
:1049c0000200200003982300020150008381580058
:1049d00006003900d4010700270007000502070080
:1049e0003400f9004f04be000000060001f8230067
:1049f000000020003400f9004f04be000000060053
:104a00008a9fbe008c9fbe000200200003982400f5
:104a10000001510081815900b9ff3900c20107002e
:104a2000470207000005eb000100e00003003d0025
:104a300060001000e08018000a0028006303620094
:104a40006333b8008004eb00066001000a00070031
:104a50000005eb00a2ff3700b8ff07000af0a20034
:104a60009fff3700040007000a0028009cff370062
:104a7000b2ff07009aff37000100e0000e0032008d
:104a80006f0341000c0035000002be008201780077
:104a9000710207006403410003003d004300200051
:104aa000847d2c000200370053002000447d2c0040
:104ab000940207000000060000002000010024000e
:104ac0000200050001f8a3001d003a004709de00be
:104ad000f40f20000410e100260032000200e00084
:104ae0002c003200f107b200c708dd004902de00e9
:104af000848070004700dd0001e0a000f207b100f3
:104b00001d030700f207b0000404200084016000c8
:104b10004700de00490add0004007000c708de001f
:104b20000300e0000200320061004000e080480025
:104b3000f107b2004711dd0082807000000006001e
:104b4000f4ff2700048260008002720001003a0036
:104b50000000060006f827000620e10012003500dc
:104b60008102630006826a00040270000e003200b7
:104b70000600370004f827000482680003003a00aa
:104b80000400200000026a000b0032000160a00057
:104b9000000006000082700001003a0000000600dc
:104ba00061010700d6ff370012022000b28a880098
:104bb000f0ff2f00f1ff270000000600889fbe00d5
:104bc0008a9fbe008c9fbe001b0020000202be0018
:104bd0000586680006002800060666004709de0014
:104be000f20fb200820032000243e800800032007f
:104bf000c729de00f30fb2007d0032000343e80056
:104c00007b003200f107b2000170a000f507b2008e
:104c10000570a000c708dd004903de008680700033
:104c20004700dd00c72add004923de0086827200ce
:104c30004722dd000305510004035000858358001e
:104c40000300310000004000818048000a05e900af
:104c50008c1f78008a9fbe00040050008580580099
:104c60000402420085824a00000040008180480022
:104c70000005eb000004be006033b8000406be006f
:104c80000d48e10056003100110009004dccd8005c
:104c90000c01b8000d02b8008481410060824a0016
:104ca0008283530003045c0084845c0060055d0023
:104cb0000a00e00025003a00800578000d40e10080
:104cc00049003100880078000700780011000900d1
:104cd0004d88d8000c01b8000d02b8008481410055
:104ce00060824a006003110083835b0004045c005f
:104cf000e0845c000900e00021003a004f01be00a2
:104d00000300e0002b003200e3016000070673009f
:104d10008c81710001003200640070004200de00ee
:104d20004e5edd000c007000c258de0001e0a00005
:104d300030010700cf017800818071004f06be006e
:104d40004f05be004f04be00000006008c834300e8
:104d50000d044c00e0844c0060054d000000e900ab
:104d60000a00e000d4ff32008c8343000d044c00a5
:104d7000e0844c0060054d000000e900ceff3700e4
:104d80000c0343008d834b0060044c00e0844c0016
:104d90000000e9000900e000d8ff32000c034300e6
:104da0008d834b0060044c00e0844c000000e9005f
:104db000d2ff37004200de004e5edd000c007000c6
:104dc000c258de0001e0a000cf0178000300e0003f
:104dd000daff320060001000e0801800d7ff3700d3
:104de000f0ff2f00aaff3700f0ff2f00b9ff3700b8
:104df0000404be0050000700870678000004fd0090
:104e00008104fd004c000700078366000678a300bc
:104e1000030032000960a7000800be002c00370024
:104e20000d78a300020032000800be002800370001
:104e30000778a30026003a0001f0a10009f0a100c4
:104e40000668a30003003200f1ff2700f0ff2f00e7
:104e5000baff37000d68a300030032000800be004f
:104e60008c807000b5ff37000768a30007003a0088
:104e70000648a30003003200f1ff2700f0ff2f00d7
:104e8000aeff37000d48a300030032006000b800f9
:104e90008c807000a9ff37000748a300040032008f
:104ea00001f82700000020008c807000a3ff37006d
:104eb0009d0007000004fd008104fd00020578004c
:104ec000990007000802be008a01780059ff3700e8
:104ed0000160a00012022000b28a880097ff37000c
:104ee0000100e000120032000500e0001000320076
:104ef000889fbe008a9fbe008c9fbe000006eb000c
:104f000001f8a3000300320060001000e0801800e8
:104f10000cf0a00005f8a3000300320060021200ac
:104f2000e0821a000cf0a2008005eb0041ff370080
:104f30006000b800020005002700200001f0a70073
:104f400017002000470bde00f60fb200040032000d
:104f50000643e8000a0032004702b30000000600e2
:104f600001037800f607b2000603700002003a0061
:104f70000703b300000006008702b300000006002c
:104f800001037800f607b200060370000200320049
:104f90000770a000000006000760a00000000600e7
:104fa0000478a300040032000578a3000300320057
:104fb0000168a30001003a000200be000160a000e9
:104fc000000006000100e00026003200610111002f
:104fd0007810e10023003c006022b8007010e1006e
:104fe0000400350080027800010078008000eb00aa
:104ff000700151000200e00009003400700311004c
:10500000062add00822ade008603dd008782720028
:105010000200de00860bdd00070070008208de0063
:1050200084817100f4ff2700048262008481710092
:1050300004002800848262006102600005f0a6007e
:105040000000060004827100070032000000e80042
:10505000e0804800000006000002be006000b800ca
:10506000efff37006000b80000000600889fbe0018
:105070000004eb006138e10016003a000100e00096
:1050800008003a00c800de004800dd00880020006b
:105090000100e00003003a00c800de004800dd0027
:1050a000680444008184cf00e98454000600340081
:1050b0008908dd00f08314008703de00878070001c
:1050c0000900dd0009044400610214004f04be0021
:1050d000000006000300e00008003a00c811de00ee
:1050e0004811dd00880020000300e00003003a00c2
:1050f000c811de004811dd00680444008384cf003d
:10510000e9845400060034008919dd00f08314009e
:105110008713de00878171000911dd000904440056
:10512000e1021400e9ff37004f0ade004709de0004
:10513000f107b200f20fb2000b003200f207b1002b
:105140000170a000c708dd00c901de008380700087
:105150004700dd000400a60000000600600010000b
:10516000e080180000000600810f700001003a0086
:10517000000006008182cf000500e00010003e0024
:105180008082cf00ee8242007028e10004003900e6
:1051900007003e00800078000000eb000e003700a2
:1051a000708312008600de000500dd000a00370073
:1051b000708352008600dd000000eb00060037001f
:1051c000e28252008508dd00708312000603de00d3
:1051d000868070000500dd007507b0000501ea005b
:1051e0000400a6000000060060001000e080180027
:1051f0000000060081017000270032008002eb00f1
:1052000001f8a3000300320060001000e0801800e5
:1052100015002000f40720000202420020003400a4
:10522000f7032000870360000604200000036300ea
:1052300002082000000161004700de00c909dd000e
:1052400000807100c708de000600e00008003200a0
:1052500087037100060032001000b0000180b0002a
:105260000188a30002003200c108de000402e80049
:10527000f107b200f30f20000320e10003003d001e
:105280004722dd00810072002900370001f8270065
:105290000000eb00260037006000b80000000600a8
:1052a000680212007f20e100020034006000b800b4
:1052b0001f0037006011b8007020e10004003500c5
:1052c00080017800010078008000eb00700252003d
:1052d0000400e00009003400f00312000719dd00ab
:1052e0008419de000703dd00868171000400de0002
:1052f000070bdd00060070008408de00f7ff2700c2
:1053000083836300870371000600280003036300a2
:10531000070032000700e00003003a00610160006e
:1053200002817300020032001000b0000180b00062
:105330000500a6000000060001f0a0000000060025
:10534000889fbe008a9fbe008c9fbe000006be00e4
:1053500082057800741b2c00c5172500f3ff2f0071
:105360003d000700df010700809fbe008101700043
:1053700036003200e7015000608258000d00310015
:105380000000e90089742c006c00b800890440001a
:105390000c00be000b0178003902be00b901780094
:1053a000040207003902be00b901780001020700bb
:1053b000210037004c02070014d52e007548260046
:1053c000030020000c03be000b0478000006be00a2
:1053d000820578006e020700d3ff2f00838145000d
:1053e0000218e100140034000003be00020478003b
:1053f0000c00be000b01780094462800152d2400f7
:10540000e3fd2f0062020700e3fd2f0083814500ca
:105410000218e100080034000003be000204780016
:105420000c00be000b017800b4282600654c240057
:10543000f3fb2f00560207004f02be004f06be00ce
:105440004f05be004f04be00000006000c00be0069
:105450000b017800f8ff3700889fbe008a9fbe00ce
:105460000004be000405be00030141000201e80083
:105470008000eb000a42b8000b43b800868242006d
:1054800060804b000a4bb80086824200070048004b
:10549000e08048000b4bb8000600400087804800c1
:1054a0000103700002003a000001eb001200370017
:1054b0000900e00002003d000a0050008b80580007
:1054c0000b00e00002003d000800500089805800f9
:1054d0008582420000004800818048008101df0091
:1054e0000300e00004003200858242000000480012
:1054f000818048000201e9004f05be004f04be0054
:1055000000000600e102410002003500b802070079
:1055100000000600e202410002003500da02070046
:1055200000000600e302410002003500f902070016
:10553000000006001c03070000000600889fbe0054
:105540008a9fbe008c9fbe003400f8000600200039
:10555000a6018800060028008686600001f0a100f0
:105560000600200007e02300060350008783580050
:1055700012003100060020000798230006035000a7
:10558000878358005c003900e7fe07000005be0075
:10559000820478000002be0082017800aeff07009e
:1055a00043002000446e2c00ff0207000a02be00e8
:1055b00089017800a8ff07004e0037000600200090
:1055c000071024000603500087835800380031007c
:1055d0000600200007fd23000603500087835800c3
:1055e0000b003100d0fe07000005be0082047800e9
:1055f000620141003b01070000067800ba01070084
:1056000062015100809fbe00821f780008003700b1
:10561000c5fe07000005be008204780031010700c6
:1056200065064000b0010700809fbe00821f780021
:105630000a02be008901780007002400060020004d
:1056400008002000d70107000005fd008105fd00ce
:105650008204fd00cf0178004f02be005501070013
:105660000a02be00890178001dfe070001047800cf
:1056700008f8a3000200320060001000e08018006b
:105680002d00070008f8a30002003200600010009f
:10569000e0801800466f2c006665b80006034500e0
:1056a0003602be0096017800440107001100370061
:1056b0000600200007c82400060350008783580016
:1056c0001300310098fe07000002be00820178003e
:1056d00001002400000020000200200000fe07005e
:1056e000150007007548260014d52e000300200081
:1056f0002d010700bffe07008d8070003400f90007
:105700004f06be004f05be004f04be00000006005d
:1057100009fe07000778a30003003a00b0fd20004f
:1057200091fc2300f4ff37000160a0001602200066
:10573000b68a8800f0ff37000100e0000d0032005b
:10574000ef0341000b003500809fbe00821f7800f0
:105750000002be00820178003fff070043002000e6
:10576000446e2c0090020700cf0178004f02be006b
:1057700039ff070000000600810370006800320056
:10578000889fbe008a9fbe008c9fbe003400f80038
:1057900008002000a80188000208a30003003200ce
:1057a0000000d0008180d2000201e9008101780070
:1057b000800278000002eb00821f78004a1cde00a5
:1057c0000801b10009792c0069417c000281fb00cd
:1057d0000214b8004644dd000340e1000100360039
:1057e0000201e9004111dd001200b3000214b8000b
:1057f0004444dd000340e100010036000201e900fd
:105800004111dd001200b3000214b8004244dd0073
:105810000340e100010036000201e9004111dd0012
:105820001200b3000214b8000340e100010036008a
:105830000201e9000214b800088651004763dd0048
:10584000492cde0008037300820478004834de002f
:105850000940e1002e003100110009000983d80041
:105860004811dd00000171000214b8000006eb00d1
:1058700084067800088552008985590004003100ab
:105880000201e9000214b800088552008985590018
:10589000820478000b04d1008a83d3000d83d300e7
:1058a0000938e1001c0031001100090049bbd80093
:1058b0008002eb000003b8000204b80008044400b2
:1058c00089844c00e0824a008703440060824c00d7
:1058d000e0814a000603560087835e0004025d00f3
:1058e00083815d00010031000000e9008200d100e9
:1058f0000080d3004f0178004191de003400f900b0
:105900004f06be004f05be004f04be00000006005b
:10591000f00f2000d2ff3700f0ff2f00e4ff370028
:1059200002000500020007000200be0000000600a1
:1059300002025000838258006100390003037100a5
:105940006200320005037200590032000300e000db
:105950005500330017003a000100e0004b00320010
:105960000208e10006003100110009004288d80059
:10597000010178008001eb008000eb0000000600d0
:105980006110e100550032000002be001100090064
:105990008280d8008002780004007800110009009d
:1059a0004288d800010178008001eb008500780072
:1059b00000000600889fbe008a9fbe008c9fbe002c
:1059c0000386cf000c06e9008c1f78008c19dd00df
:1059d000f00216000512de00848171000c11dd005a
:1059e0000003be008004eb00053cde008c3bdd00c4
:1059f0000532de00848373000c33dd00070078007d
:105a000088007800110009004388d8000202b8001d
:105a10000306b8008c82420060854e008005eb00d2
:105a20000402530085825b000a055c008b855c00e4
:105a30000b0033008000eb004f0678000c21de00e5
:105a4000700516000a2ddd000a0171008c29de00a8
:105a50004f06be004f05be004f04be00000006000a
:105a60000202420083824a0060054d00e0854d003d
:105a70000000e9000b00e000eeff3d0002024200e2
:105a800083824a000000e900eaff37000000e000de
:105a900012003200110009000280d80001017800d4
:105aa0008000eb00000006000401be00010037008a
:105ab0006011b800100020008000eb00000006001c
:105ac0000001be006000b800000006000001be003a
:105ad000f0ff2f00f1ff2f00000006006011b8005a
:105ae000000006000100e000210032008201e80011
:105af0002b0035007e0211001e0034006011b8003a
:105b00007020e10004003500800178000100780079
:105b1000cf88de00700252000400e000070032006f
:105b200003017800700312008601dd000400de002e
:105b3000860bdd00070070008488de00e102600053
:105b40000600280003036300f7ff27008383630038
:105b5000828373000600e0000500320007817200b6
:105b60000200e0000200320061004000e0804800d6
:105b7000000006007e10e10001003a00000006006f
:105b80000100e00003003500f1ff2700f0ff2f00c7
:105b900000000600010028000000200000000600b0
:105ba0006000b8000000060060001000e0801800ef
:105bb0000200370060021200e0821a000100e000db
:105bc0003f0032000500e00039003200889fbe002f
:105bd0008a9fbe00820378008304510004003d00c8
:105be0000002fd008102fd008904ea0083037800c1
:105bf00001017800800078000000eb0005037800c8
:105c0000840278000002eb000605690007003500f9
:105c10000281d1008180d3000080d3000683d100af
:105c20008582d3000482d3008703e8007048e10036
:105c3000060035007f48e10029003c00050278009d
:105c4000860278004fb3de00f08454000900e000c3
:105c5000080032000922de00708514008a2ddd0064
:105c60000b027200892ade008a35dd008b82720009
:105c700009b3de00040040008580480006014900a9
:105c80008c010700838353000200e000090032000a
:105c90000b0028000b10e1000c003200010078001e
:105ca00082007800070178004f05be004f04be0057
:105cb000000006006000b8000001eb00faff3700aa
:105cc0000400be0003017800000006000100e000af
:105cd000f2ff3a0002002c008703e800efff3700d4
:105ce000f9012000d5ff37000003eb008101df0040
:105cf0008301ea006f18e1000f0032000300e000aa
:105d0000060032008308dd00708211008402de008c
:105d1000858070000300dd00030343000100e00004
:105d200014003200040028000408e10013003200cf
:105d30007e011300000006008100d1008080d300a6
:105d40004f00dd00f60020008101df008301ea0042
:105d50006f18e100e9ff3a008100d1008080d30094
:105d60000000eb00e60120008101df008301ea0072
:105d7000e2ff37006000b800020005000000e0000c
:105d8000ebff3a0001002c000603e900e8ff3700b2
:105d900060001000e080180002003700600313006c
:105da000e0831b00889fbe008a9fbe008c9fbe00c0
:105db000830441000405b800050eb8000501b800d1
:105dc0008285450003064e00e0864e000409b800b7
:105dd0008285450003064e00e0864e000100e0008b
:105de00002003d000406560085865e000500e000c6
:105df00002003d000006560081865e000d00e000b6
:105e0000740032000700e000750032006022b80024
:105e10008783d1000683d3008582d3000900540014
:105e20000000e9001b003c003b0035000804e800ce
:105e30000a0042008b804a000c014b008d814b0010
:105e400040010700040454000300e0000e0032008b
:105e5000090028000918e100060032000200be0017
:105e6000080178004f06be004f05be004f04be007b
:105e7000000006000200e000f8ff3a0003002c00da
:105e80000804e800f5ff37006000b8000001eb00ef
:105e9000f4ff37000804e8007e00e1000100340050
:105ea000e0012000cfecde00ef0060000100e00028
:105eb0000c003200f08110000155de000359dd00b6
:105ec00002057500815dde000361dd0082857500dd
