:020000040000fa
:080000000002040000000000f2
:020000040000fa
:100400002f2924000066240000018800000000005d
:100410000c00070060eb2500010020001100070020
:10042000000020000000e000020032000000020096
:10043000000000006e5f0200000000000040da00d3
:100440000000fe004440a900e04821000000e00058
:100450000300320000002000a00188004440a800f2
:100460000000060091018800800078000000eb0089
:1004700015003700e280400032a0b4009101ba00bc
:10048000e280400032a0b4009102ba00e280400055
:1004900032a0b4000002eb00472bde00f507b200eb
:1004a000602ce10004003a000059eb008301e900f0
:1004b000fdff3e00040037006128e100010032002a
:1004c0000082eb00040007001101ba000200e00006
:1004d000e8ff3a00000006003159ba008301e90044
:1004e0000c0032002159ba008301e90008003200f3
:1004f0000400e00003003a00e280400032a0b400b3
:10050000f5ff370011d9ba008301e900faff3a007c
:100510008100e800e180400032a0b4000000060045
:100520002204040000000000881f7800f00b820005
:100530000000e0000100320000000100c00b82005a
:100540000000e000010032000000010010068200ff
:100550000000e0000100320000000100e005820020
:100560000000e0000100320000000100001824003b
:100570001004e00026003a00d00b8200e10b82005c
:100580000004eb00d2602600930120005106070012
:10059000f2352f00e3c623000000410081804900ae
:1005a0000804e800e80f5400f6ff3a00d00b8a0078
:1005b000e10b8a00480c2400d26026009301200041
:1005c000d00b8200e10b820042060700f2352f00bb
:1005d000e3c623000000410081804900d00b8a005f
:1005e000e10b8a00009cbe0040142400800f5400e0
:1005f000f1ff3a00000a8200110a8200f0058a0029
:1006000001068a0011c0b3000018240001487800d8
:10061000d260260093012000d00b8200e10b820003
:100620002c060700f2352f00e3c62300000041002e
:1006300081804900d00b8a00e10b8a00e20b240084
:10064000120178007f0161004211dd00430c24009b
:10065000030141001202be00f4058a0005068a006b
:100660000089be00f0058200010682004008de001d
:1006700000f0a1004f047800000006008000780020
:100680001104b100030035009101b10001003c00ec
:100690000050a00000000600800078001106b100a4
:1006a000030035009101b10001003c000050a100a1
:1006b00000000600040037000204e0000a003200d7
:1006c0000000e8008100e80010417800914f5100df
:1006d000f9ff32000081eb0010407800914f50008c
:1006e00004003900020037000001eb000100370070
:1006f000120020000200780000000600889fbe0063
:10070000e30440000900a100808f54004a00360035
:10071000e38f540001003e0049002000620c82007b
:100720000200e00002003200820078000c00370076
:10073000e118240003003700908f54002300360096
:100740008080e800110078000000e000faff3a0025
:100750000f003700908f54001c0036008080e800a6
:10076000110078000000e000faff3a001201780062
:10077000e118240003003700908f54001300360066
:100780008080e80011007800820f5000faff3a00e4
:10079000580c8200890f54000100310009047800d0
:1007a00008007800e20007000000e00004003a00c2
:1007b000890f5400200032000804d100f5ff3700f3
:1007c00008187800e1000700d4ff37001101780015
:1007d0009201780064805100890f500003003100bd
:1007e00012009000800878000700370009004100df
:1007f00080087800920190001300980011007800a2
:100800001288140009097800910078000100e000c6
:1008100005003200110090000000e00002003200ec
:100820000180e800010037000000eb00600c8a0046
:100830000280e800010037000000eb004f04be001a
:1008400000000600881f780002047800f30007000b
:10085000080040004f047800000006000000fa0085
:10086000881f7800000478003fb99700ea8157009c
:100870008000780020422000ef0007008000780010
:100880000000e000020035000040eb0000f47800ba
:10089000010078004f0478000080fa000000060094
:1008a000881f78008a9fbe000185b9000a00780081
:1008b00092ff0700000478000000e000030032000f
:1008c0000a0178008000eb0094010700080078001e
:1008d0004f05be004f04780000000600889fbe0050
:1008e0008a9fbe008c1f7800000578000106780002
:1008f0000000e00003003a00010078007fff0700dd
:100900005e0037000100e00003003a008f0007009e
:100910000c0578006b003700e38140000300a10064
:10092000818f510063003600e38f510001003e00cb
:10093000430020008a84e90019017800e30f510088
:100940005c0036000208a3005a003a00640051001f
:10095000808f510005003e000380440003185100c1
:10096000830c78007900070056003700828f510011
:1009700054003600e01824001000e000410032006e
:100980000281440080057800010037008085e8007e
:100990001b007800900090000100e000020032008f
:1009a000898f5000f9ff3900800f510009003a008b
:1009b000c01824000008eb001b00780099007800a4
:1009c000908c40001b00780010009000800d780093
:1009d0000c003700810f510038003a00c018240085
:1009e0000008eb001b0078001000900099007800d0
:1009f000908c40009b007800110090001000900047
:100a000090009800998f510003003e008c00780000
:100a10000a007800160037009b0078000100e00013
:100a2000180032001101780002804000890f500048
:100a300014003a0019004100808f510011003e005f
:100a400011049000c01824000008eb001b0078007f
:100a500090007800198840001981e9001b80e800a7
:100a60008a00780034010700880d78008c00780037
:100a70009aff07000000e000020032000005780045
:100a8000100037000c0078001cff070000047800fd
:100a90000000e000070032001981e9008a007800b8
:100aa0005e0007000a0078002800070008057800ab
:100ab000040037000005eb000200370080007800da
:100ac000d8ff37000a0078004f0678004f05be00b7
:100ad0004f04be00000006008000780001003700cf
:100ae0000000e8001004e000fdff3a0001005000a3
:100af0000000060080017800000178000100370046
:100b00000201e8001204e000fdff3a000200370095
:100b10000201e8008100e8001140780000497800f7
:100b20000004e000faff3a0003007800000006002d
:100b30000000e00003003400c1040700e10f4000a2
:100b400001003a000000eb00000006000000e00099
:100b5000310032008080e90091027800e38f52007a
:100b60002d0036000508a3002b003a00720c82000d
:100b70000200e00002003200828f500004003100c9
:100b800002087800710c8a00160037000301780013
:100b9000920190000300e00002003200818f5100ba
:100ba000faff39001202780004004100808f5000e3
:100bb00019003900810f500003003a000509420076
:100bc00082007800070037000300e00003003200d5
:100bd00005804000808f51000f003900930098007d
:100be00011019800110190000200e0000a0032009b
:100bf00011804000820f500007003a00c018240006
:100c00000008eb00110090001101780090084100ed
:100c10001000900090009800000006008001eb009a
:100c20000200370061f079008301e800828f5100f3
:100c3000fcff3a00000006006200fa00889fbe0038
:100c40008a9fbe000004be00020578008300780081
:100c500060f92f000f004000cb00070088979f002d
:100c600099979f000000eb00a09f9f009a45780095
:100c70000b80fb000000ea00cf04de0050c2b3008e
:100c800080cf5500020032000904780001003700cf
:100c90000904e9000800e0000b0034001f909700f1
:100ca000080178008a0078008f9197000300010006
:100cb00090979f000000e000930032002f9897006b
:100cc00000004400a09f9f000905450050c2b300ea
:100cd00080cf5500040032000b04e000e3ff3a002f
:100ce0002f989700890037000000eb00809f9f003d
:100cf000f0979f00e0979f00d0979f00c0979f00bc
:100d0000b0979f00c09f9f00090037002017240064
:100d1000008050000000400061162400e1007800cf
:100d20004f98970001007000c09f9f000a05e800df
:100d30001a4478008800fb00201724009700070061
:100d4000800078000000e000f0ff3a00a0c2b3008d
:100d5000804f54000e003a00bf8897000180e900e0
:100d6000b08f9f0010007800b09f9f000000e0004f
:100d700005003d000000ea00b09f9f004f989700db
:100d80000020a000c09f9f000a05e8001000370067
:100d9000b19f9f0003fd2f00f4ff270008003700dc
:100da0003f989700840f5000040032006a00b90099
:100db0000000410003004000b09f9f000a05e800ca
:100dc0001a01fb0003004100e90f5000f4ff360058
:100dd000e0c2b3009a4f1000040032000080eb0024
:100de000909f9f008a0478001c0037008a04e80066
:100df000a0c2b300994f100007003a00bf889700c7
:100e00000180e900b08f9f0010007800909f9f0044
:100e10008a84e800110037000000eb00909f9f00db
:100e200003fd2f00f4ff2700080037001f989700ec
:100e3000840f5000040032006a00b9000000410035
:100e400003004000909f9f008904e8001901fb0007
:100e500003004100e90f5000f4ff36001944780008
:100e60008800fb00201824004c0007000000e00070
:100e700002003a0000447800010037008904e800cd
:100e8000a87f9f0080c6b300804f540004003a0042
:100e9000994f14000a003a006640500006003700df
:100ea000c0c6b300804f540005003a00994f1400ab
:100eb00003003a0065404000a07f9f008904e800dd
:100ec0000905e800cbfb2f008f8545001901fb00c9
:100ed00060f92f000f0040000084e8008b017800cb
:100ee0008000780008007800350007000000e0006e
:100ef00005003a008b0078000800780073010700b5
:100f00000000e00059ff3d000080eb004f05be00ef
:100f10004f04be000080fa00000006008001eb00d4
:100f200002003700817178008301e800828f510050
:100f3000fcff3a0000000600808f50000e003100d8
:100f400082814000830f50000b00310002024000fc
:100f50008000eb0002003700436278008100e80067
:100f6000828f5000fcff3a000000060061f079001b
:100f70008301e800010037008001eb00828f5100ff
:100f8000faff3a00000006000200fa00f1bf9f00dd
:100f9000010878000080fa00000006000400370015
:100fa0000204e00001003a00000005000000e80033
:100fb00010417800814f5100f9ff3a00000006000f
:100fc000889fbe008a1f7800000478000102780024
:100fd0008244780003057800e0c6b300804f5100da
:100fe000d200320015003c006b405000804f510091
:100ff000240032000a003c0070405000804f510035
:101000000f01320065404000804f510074003200f3
:1010100050c2b300804f510020013a001c0137003c
:1010200040c6b300804f51001b00320065404000b5
:10103000804f510019013a001700370030c7b30044
:10104000804f5100fe00320007003c006440500019
:10105000804f5100620032000040e800804f510094
:101060000e013a00e700370050c7b300804f51002f
:101070005b00320063404000804f510007013a009e
:10108000570037009180e900010a7800780090004d
:101090009171780007013700a8609000c0c6b300c6
:1010a00080cf50000a003a0094007800648050001d
:1010b000000a78001000be004f89de00cf91de00ec
:1010c0000002be000203780082037800130037009c
:1010d00010c7b30080cf500003003200a0c6b30099
:1010e00080cf500006003a009400780068805000dd
:1010f000000a78003002be002003be00070037005f
:101100001480e900000a78001000780000027800de
:10111000cfa2de000503780086037800049cbe00a1
:101120000694be00a860900080c6b30080cf500037
:101130000e00320020c6b30080cf500005003a00f8
:101140000400fb00cf80de000101780082017800fe
:101150000a00370040c7b30080cf500003003200c0
:101160006640400080cf500006003a00040078003e
:10117000cf80de000101780082017800009cbe0073
:101180000294be003800be002801be00e00f5000ef
:10119000e08f5800e00f5900e08f590003003d0038
:1011a00078009000d1c2b3000a0037000810900008
:1011b0000018a3000300320078009000b1c2b30011
:1011c000040037000008a3005300320078009000ac
:1011d00001c2b300017578000000e8004d0037003f
:1011e000a8609000c0c6b30080cf500006003a004f
:1011f0009400780064805000000a78001002be005d
:101200006033b8001300370010c7b30080cf500020
:1012100003003200a0c6b30080cf500006003a00a1
:101220009400780068805000000a78003002be0008
:101230002003be00070037001480e900000a780090
:101240001000780000027800050020000600200051
:1012500007002000049cbe000694be00a860900019
:1012600080c6b30080cf50000e00320020c6b3000d
:1012700080cf500005003a000480fb0001002000f0
:1012800002002000030020000a00370040c7b3001e
:1012900080cf5000030032006640400080cf5000f5
:1012a00006003a000400780001002000020020003f
:1012b00003002000009cbe000294be0008109000b5
:1012c0000038a300140032003800be002801be0020
:1012d000e00f5000e08f5800e00f5900e08f5900f8
:1012e0000d00320080c7b30080cf540003003200ed
:1012f00080c5b30080cf540007003a00780090000a
:1013000001c3b300017578008000e80009f578009a
:101310000080e8007004980078009000000045000c
:10132000600498008940780042003700a86090006f
:10133000c0c6b30080cf5000250032000a003c0038
:101340006440500080cf50002800320000c0e80008
:1013500080cf5000140032006840500080cf500011
:1013600022003a000a00370040c7b30080cf500087
:101370001e0032006640400080cf50001b0032004b
:101380006940500080cf500018003a000600370036
:101390001480e900000a780010007800485c900092
:1013a00008487800450037001480e900000a7800fa
:1013b0001002780068089000cf80de0001017800fc
:1013c00082017800009abe000292be003b00370006
:1013d0001480e900000a7800100178006808900085
:1013e000cf80de000089be00340037001480e900a1
:1013f000000a780010007800680c90000808780057
:101400002e0037001180e900800878001000780075
:10141000cf80de000101780082017800009cbe00d0
:101420000294be007800900000004500600498001f
:1014300081c7b30008007800ee0007001f003700e6
:101440001480e900000a7800100078006004980019
:10145000580990000200e00002003d009efd0700d8
:10146000090037008000eb006b0207008000780065
:101470000000e0000300320068009000008050008f
:101480000100370058089000100c98000b0037003e
:101490007800900002757800060037007800900010
:1014a000800045000904e00001003a0059c2b30081
:1014b000894878000000e800700498000000eb0004
:1014c0004f0578004f04be00000006000400fa003b
:1014d000889fbe008a9fbe008c1f780000047800a1
:1014e0000106780070089000f8009000010050009c
:1014f00088089000010050009808900001005000fa
:10150000a808900001005000b808900001005000a9
:10151000c8089000810550000002220090bf9f0083
:1015200000032300a0bf9f00081090000028a30024
:1015300018003a000b00e000160034008b0478001d
:1015400009057800e28f5400020036002a002000ce
:10155000020037000900e0000b0034005800900042
:10156000c80190000a017800ee80570003000100d6
:10157000500498000000e0009600320068089000d7
:1015800000004500600c98008a8454004240a90085
:10159000ebff3c00780190000200e0000b003400fb
:1015a00058009000c80190008c00780003000100f2
:1015b000500498000000e0008600320068089000a7
:1015c000f800900001004000600c9800880c90002a
:1015d0000900e0001500340009057800e28f54008e
:1015e000020036002a002000020037000900e00057
:1015f0000b00340058009000c80190000a017800e8
:10160000ec80570003000100500498000000e00047
:10161000700032006808900000004500600c9800df
:101620008a8454004240a900ebff3c001809900056
:101630000200e0000b003400e80090005800900029
:10164000c801900003000100500498000000e00071
:101650006000320068089000980890000100400087
:10166000600c9800a80c90000900e0001500340000
:1016700009057800e28f5400020036002a0020009d
:10168000020037000900e0000b0034005800900011
:10169000c80190000a017800ec80570003000100a7
:1016a000500498000000e0004a00320068089000f2
:1016b00000004500600c98008a8454004240a90054
:1016c000ebff3c00380990000200e0000d00340000
:1016d000e8009000180890008080400058009000ba
:1016e000c801900003000100500498000000e000d1
:1016f0003800320068089000b808900001004000ef
:10170000600c9800c80c90000900e000150034003f
:1017100009057800e28f5400020036002a002000fc
:10172000020037000900e0000b0034005800900070
:10173000c80190000a017800ec8057000300010006
:10174000500498000000e000220032006808900079
:1017500000004500600c98008a8454004240a900b3
:10176000ebff3c00081090000028a3001b00320093
:101770000b00e000190034008b04780009057800a4
:10178000e28f5400020036002a00200002003700d9
:101790000900e0000b00340058009000c8019000e0
:1017a0000a017800ee805700030001005004980001
:1017b0000000e000070032006808900000004500cb
:1017c000600c98008a8454004240a9000300340051
:1017d000eaff37000080eb00010037000000eb005b
:1017e0004f0678004f05be004f04be000080fa008f
:1017f000000006002f03b000889fbe008a9fbe0035
:101800008c9fbe008e1f78000007780050152400c2
:10181000c0b79f0080c5b30080cf500008003200e1
:1018200042142400c2b79f007740400080cf500090
:1018300003003a0083002000b3b79f000a0037007e
:1018400080c7b30080cf500005003200a400200004
:10185000b4b79f0080c5b30080cf500002003a00ab
:1018600005012000b5b79f003e04be002e05be0056
:1018700040c6b30080cf50000300320065404000f6
:1018800080cf50000b003a00e00f5400e08f5c0066
:10189000e00f5d00e08f5d0006003d006000b800d5
:1018a0006011b80008045000898458000a055900e6
:1018b0008b855900bfb39700e88f530003003200b7
:1018c000f08f530045003a00020037003600200038
:1018d0000100370046002000e00f5400e08f5c005c
:1018e000e00f5d00e08f5d0005003a005e089000ab
:1018f00081012000a1b79f000000e0000800320035
:101900003fb197000200e90008006000cfb19700e6
:101910006340780090df9f0074012000a4b79f000f
:10192000860278008502e900050033008b05d100ae
:101930000a85d3008984d3000884d300f9ff3700d7
:10194000089fbe000a97be00afb397000700e900ea
:1019500021fc2f008f804000008240003fb19700a3
:101960008202e90012003700afb397008703e90055
:10197000a7b79f0000806200cfb097006152780047
:101980003e00be002e01be00860378008703e900fa
:10199000050033008381d1000281d3008180d30010
:1019a0000080d300f9ff3700009fbe000297be0001
:1019b0003e00be002e01be00e00f5000e08f580038
:1019c000e00f5900e08f5900d6003400afb3970004
:1019d0000700e000e4ff3c00d2003700ae6090005a
:1019e00080c6b30080cf50000b00320006003c00e0
:1019f0000104e000080032006640500080cf500033
:101a000073003a0004003700c0c6b30080cf500016
:101a10006f003a0031003700080178000800e0004c
:101a200005003a005e08900081012000a1b79f00e8
:101a30000000e00009003200bfb19700110009006a
:101a40000381d8008000fd004fb297006440780009
:101a500090df9f0075012000a5b79f00bfb39700de
:101a6000110009000781d80080017800afb097000d
:101a70000100e90022fc2f000f014100000241009b
:101a80000c003700bfb29700110009008501d80093
:101a900000017800afb397008703e900a7b79f0064
:101aa0000590b90000805100cfb0970061527800d6
:101ab000820178000300e000030034002fb197009a
:101ac0000200e000efff3c0003007800cf80de0062
:101ad00001017800820178003a0037000806be0054
:101ae000e00f5400e08f5c0005003a005e089000b3
:101af00083012000a3b79f000000e000090032002e
:101b00003fb297006121b9000c00be0077040700c6
:101b1000cfb297006540780090df9f0077012000ea
:101b2000a7b79f003fb297006121b9000c00be002b
:101b3000710407000006be00afb297000500e9007f
:101b400027fc2f008f8343008083430097b79f00bb
:101b5000110037003fb197006114b9000801be00c1
:101b60000c00be00f00007000005be00afb19700fa
:101b70008301e900a3b79f000801be00d50007005c
:101b8000000056001fb29700cfb297006552780050
:101b900094b79f000a06be00e00f5600e08f5e007b
:101ba00003003400afb397000700e000e9ff3c00fa
:101bb0004feade00cfa2de000c00be000401780078
:101bc00084017800009fbe000297be0055003700d8
:101bd000e00f5400e08f5c00e00f5d00e08f5d00df
:101be00005003a005e08900081012000a1b79f0027
:101bf0000000e0000d0032003fb1970002027800c3
:101c0000cfa2de0005037800860378000800be003e
:101c10000a01be00db0107004fb297006440780064
:101c200090df9f0075012000a5b79f003fb197008e
:101c300002027800cfa2de00050378008603780058
:101c40000800be000a01be00c7010700009fbe00d9
:101c50000297be00afb197000300e90024fc2f00fb
:101c60000f0242000006420020003700bfb297007a
:101c700005047800cfc4de00090578008a057800e5
:101c80000802be000a03be005fa89700efa89700f5
:101c90007fa997008fb19700be010700d0b79f00c2
:101ca000e1b79f00f2b79f0083bf9f00afb39700db
:101cb0008703e900a7b79f000802be000a03be0021
:101cc0003a0207005faa970000005200cfb29700c7
:101cd000655678005fb09700efb097007fb197002e
:101ce0008fb99700009fbe000297be003e00be0065
:101cf0002e01be00d0af9f00e1af9f00f2af9f006a
:101d000083b79f00e00f5000e08f5800e00f5900ac
:101d1000e08f590003003400afb097000100e000ed
:101d2000d2ff3c003fb19700e80f510013003a008a
:101d30000e1090000038a30010003200afb19700e1
:101d4000f78f510006003e0024fc2f000f024200d6
:101d5000e4c0790000c3b30080cf50000700320018
:101d6000afb297008502e900a5b79f0000c3b3009a
:101d700027fc2f008f83430080f37a00afb19700d8
:101d800078811100120f98006e00900024fc2f0043
:101d90000f02420083004200a0fb07001e099000d2
:101da0005e089000800f510006003d0002005000c8
:101db000000f98000e1090000040a100001798003e
:101dc0000f0037000000e0000d003d000e109000f5
:101dd00074006000f00f500009003a007e08900087
:101de000fe009000010050008e089000010050009d
:101df000020050004240a90001003400000f98008a
:101e00004f0778004f06be004f05be004f04be00ce
:101e10002f03b100000006008001eb000400370032
:101e20008301e80090cf1000040032000000e800b9
:101e3000828f5100faff3a000000eb00000006001c
:101e4000889fbe0080047800800c82000000e000c3
:101e500003003a00100007000000e0000a0035000f
:101e6000800c82000900e00002003a0000047800c3
:101e70000600370000047800090040000600070053
:101e80000000e00001003d000084eb000800780045
:101e90004f04be0000000600800078000000e00053
:101ea00004003a0020192400800c8a000101780007
:101eb000060037000081eb0020292400808f5000ad
:101ec00002003e00810c8a000001eb000200780055
:101ed00000000600020ab900001bb9000200b800a9
:101ee000810042008100430000000600811f78004d
:101ef0000100e00002003d0060001000e0801800da
:101f00000300e00002003d0060011100e0811900c3
:101f1000760307004f00e00002003b006000100065
:101f2000e080180000000600839f68000100e000c8
:101f300002003d0060001000e08018000300e00097
:101f400002003d0060011100e08119006a030700f2
:101f50004f00e00002003b0060001000e08018002d
:101f6000000006000001be004a0007000470a70040
:101f700003f0a1006509b100160032000d00350024
:101f80006828e10006003500f0ff2f00f1ff270070
:101f90000300e00013003b000100280000000500e2
:101fa00000004000818048008502e900fcff3a0003
:101fb00008003700f88f420002003c008000eb0070
:101fc000000005008100d1000080d3008502e800f8
:101fd000fcff3a000300e00002003b00600010003c
:101fe000e080180000000600889fbe008a9fbe00a7
:101ff000010578000100e0000400350008003c0005
:102000000000e000200032000500370060001000f2
:10201000e080180002003b0001f02c001a0037009d
:102020000004be006011b8006b0920000982cf00d7
:10203000020039000882cf000441b000694252001a
:102040000e00320008003b008281710061016400d3
:102050008904d1000884d3008b05e8000442e8001d
:10206000f9ff3a00050037000804440089844c0059
:102070008b05e9000442e900fbff3a001a00070063
:102080000af0a70001f0a0004f05be004f04be00fb
:1020900000000600c70ade00f107b200f50fb2002b
:1020a00008003200e1cf4200020032000170a000bf
:1020b00024000500810f70000100320004080500b3
:1020c00044000500810f700002003a001400050072
:1020d0008502e9000000400081c04800fcff3b0091
:1020e0000170a000240005008100200061805500df
:1020f0000b003d000b00200061fe2f000100e100fd
:102100001d00340082817100610164008904d100e6
:102110000884d3000000e800faff3a0071002000b4
:1021200061006400030070000200600009003200da
:1021300061044400e0844c000988a50005003200d9
:102140008b05e8006808e10002003a008904d1002c
:102150000884d300f20f20000258e10005003d0082
:10216000c75ddd00f907b2008980750008007800be
:10217000000006000bf827008b0078000000050027
:10218000881f7800000478005001be004000be00a7
:10219000040040008580480006014900878149000d
:1021a000009cbe000294be000400e1000588e1002e
:1021b0000690e1000798e100020031006800440049
:1021c0001008e8004f04780000000600f48747007c
:1021d000889fbe008a9fbe008c9fbe008e1f780025
:1021e0000205be000004be00d4b79f00e5b79f0003
:1021f000f6b79f0087bf9f000000eb00c0b79f00ad
:10220000b0b79f00a0b79f0090b79f0080b79f0016
:102210000d042000bfb097004fb0970000014000b0
:102220000000e0000f003d004f08de0000007100dc
:10223000c0b79f009e00070001003d001200200073
:10224000a100070001003d0012002000a6000700c9
:10225000b1000700b60007000f004000c8ff0700ec
:10226000220037004f08de0000067100ccb79f0047
:102270008f00070001003d001200200092000700bf
:1022800001003d001200200097000700a200070097
:102290000fb297009fb297002fb39700bfb397007c
:1022a000a90007000000520081805a0002015b0073
:1022b00083815b0080b79f0091b79f00a2b79f000a
:1022c000b3b79f000007eb009f0007000020e1006c
:1022d00001a8e10002b0e10003b8e1000100310013
:1022e0001e0020000e005600c0b79f004fb297009e
:1022f0000400e0000700350010002000010020006d
:102300006011b80008047000898470000a0571002b
:102310008b8571008d06e900beff3a000400e000e5
:1023200003003d00820007000f00400094ff0700fb
:102330004fa897000000e00004003a000fb4970097
:102340009fb497002fb59700bfb597009400070082
:102350004f0778004f06be004f05be004f04be0079
:102360004f01b10000000600881f7800180020000f
:10237000881f780095ff07008f87e9004f047800d9
:1023800000000600801feb0090ff07008f87e90028
:1023900000000600889fbe008a9fbe008c1f780048
:1023a0006e00070007003d0073000700e00f5b00b0
:1023b000e08f5b0007003d00320007000006eb00e5
:1023c000040037003400070002003d002a00070027
:1023d0001c00200072000700e3ff07000203be009c
:1023e0000002be000c00e0000100320022000700e5
:1023f0000400be000601be004f0678004f05be0077
:102400004f04be0000000600889fbe008a9fbe00e9
:102410008c1f78005100070005003d0056000700a2
:10242000e00f5b00e08f5b0006003d00040037001a
:102430001900070003003d006000b8006011b800fb
:102440001000070056000700ceff07000203be0081
:102450000002be000c00e000010032000600070090
:102460000400be000601be004f0678004f05be0006
:102470004f04be00000006006000b8006011b80004
:1024800000003700040250008582580006035900fe
:1024900087835900000006000006eb00e00f5200a1
:1024a000e08f5a00e00f5b00e08f5b000000060049
:1024b0000180400090b79f000001eb008fb09700b3
:1024c0000100e000000006000200700090b79f00cd
:1024d0000180400080b79f000001eb00ffa897003b
:1024e0000100e000000006000200700080b79f00bd
:1024f000018040006faa9700cf20de00010070002d
:10250000f0af9f0004024200250007004f18de00d4
:102510000002720000000600e4af9f0008044400bf
:1025200089844c000a054d008b854d000000060093
:102530003fb29700cfb297005fb39700efb3970019
:1025400000fe2f00000006003fb09700cfb09700bc
:102550005fb19700efb19700000006000205be00d2
:102560000004be00e00f5000e08f5800e00f59005b
:10257000e08f5900000006006000b8006011b8004c
:1025800008045000898458000a0559008b855900b9
:102590001c002000e00f5200e08f5a0000000600ef
:1025a0000800be000a01be0000000600889fbe00b1
:1025b0008a9fbe008c1f78000205be000004be008a
:1025c0000006eb00e00f5000e08f5800e00f5900cc
:1025d000e08f590007003d006000b8006011b800ae
:1025e00008045000898458000a0559008b85590059
:1025f0001c002000e00f5200e08f5a00e00f5b004b
:10260000e08f5b0002003d000f0007000c00a200fd
:102610000800be000a01be00120007000203be004f
:102620000002be000c00e0000100320006000700be
:102630000400be000601be004f0678004f05be0034
:102640004f04be00000006006000b8006011b80032
:102650000402500085825800060359008783590000
:1026600000000600889fbe008a9fbe008c9fbe00af
:102670000404b8000506b8008904460060854e00d1
:102680000606b8000a054600e0854e000706b800b9
:102690008b054600040eb800890446000a854e00ea
:1026a000e0854d00050eb8000a0546008b854e00fa
:1026b000060eb8008b0546000416b8000a05460051
:1026c0008b854e000516b8008b054600041eb80029
:1026d0008b0546000800be000a01be004f06be0082
:1026e0004f05be004f04be000000060023c2bf001d
:1026f0000004a20061006000000006008000780075
:1027000020c2bf0066406000e64f5000010032006a
:10271000f10fb200211188000000060007f8270021
:10272000078361000638e10004003a00f707200043
:10273000878361008703710001003a0003f0a20063
:10274000889fbe008a9fbe008c9fbe00470ade00a5
:102750000480a100c71ade000580a1000700280040
:102760000785600087856100f70f20000720e100e2
:102770009e0032000728e1009c003200010678002c
:102780000400e000b4003200f707200087806000fa
:102790000170a0000500e000c0003200f707200033
:1027a000878161000370a000050652000f003a0007
:1027b0000b50e1000b0032000308e10002003a0078
:1027c0000200e1007e0032000204500083845800c1
:1027d000040031000001fd008101fd008402fd00c4
:1027e0008a05fd006044b800210037000520e100a3
:1027f00005003d000001fd008101fd008402fd0097
:102800008a05fd00050652007a60e10005003500ea
:102810000170a1004722dd00848070008a80700072
:10282000630037006044b800ef02660007ff2f0026
:10283000070666000500e00006003400f083120081
:102840008714dd000511de00071bdd0006017100a5
:102850008519de007060e10005003500090478008c
:1028600082047800030178008001eb0070065600b6
:102870000b50e10003003a00020040008380480052
:102880000400370060041400e0841c0002005800bb
:10289000838058000188a300060032008100d10027
:1028a0000080d3008984d3000884d3000402e800a8
:1028b000270037000178a30025003a000100e0005e
:1028c000030032008186cf00698656000a00370077
:1028d0008c0020000000e00004003a0009007800ad
:1028e000880478000004eb00700252008086cf005c
:1028f0000d0646000c06e9007060e1000600350098
:102900008000780009007800880478000004eb005b
:1029100070065600700252000c00e0000c003400fb
:102920008c08dd00f00316000703de0086807000cf
:102930000c00dd00074bde00060070008c4cdd0053
:102940000743de00868474000c44dd000c02520054
:102950006120e100200035006101600007002800cf
:1029600087816400f7ff27008783640007037400f2
:102970000300e0000600320082037300040032000e
:102980000000e800e08048000188a3000e003a0043
:10299000f70f20000720e1004a003d000170a10070
:1029a0004722dd00810072008a8070000000be00b6
:1029b0004f06be004f05be004f04be0000000600db
:1029c0006000b800faff37008100d1000080d3001a
:1029d0000402e800eeff370004017800890174006a
:1029e000320107008a807000f1ff370059010700ab
:1029f000070278000001fd008101fd00550107007c
:102a000087027800850372000778a3000400320073
:102a10000001fd008101fd0068010700e4ff3700af
:102a2000850362000768a300080032000b50e10034
:102a300003003200f0ff2f00f1ff2700dcff37001a
:102a40000001fd008101fd00d9ff37000468a300eb
:102a5000d7ff3200faff3700f8ff270088836000b5
:102a60000b003a000000e00009003a008303640014
:102a700082837300020032000200be00ccff3700e8
:102a80000b50e100ceff3a000200be00c8ff370045
:102a900014002000810064003eff3700f8ff27008b
:102aa0008883610004003a000200e00002003a005e
:102ab0008c007800beff3700150020008301640001
:102ac00039ff370001f82700000020008100750061
:102ad000b7ff37000383680007002800070363007f
:102ae000470ade000480a100c71ade000580a100ad
:102af000f70f20000720e100420032000728e10024
:102b000040003200889fbe008a9fbe008c1f780064
:102b1000f107b200f307b2000400e00064003200e5
:102b20000170a0000500e000680032000370a00002
:102b300085054200eb07b1000204b8000302b800ab
:102b40008484440060854a00020ab80084844400fa
:102b50000a854a00030ab800040545000400330052
:102b60000804d0008984d2000a85d2008b05e900d0
:102b70006158e1003d0035000210200009016100ac
:102b80000308200089816100f70720008783640023
:102b900008867300c84cde00c853dd0087847400cb
:102ba0004855de000300e000060032008203760094
:102bb000040032008904e80060054d000a88a30083
:102bc0000c003a00f70f20000758e10044003d00d8
:102bd0000a70a100c75ddd000a8575008a007300d8
:102be000090078004f0678004f05be004f04be0074
:102bf000000006000a05d1008984d3008b05e80097
:102c0000f0ff3700881f780006047800d100070025
:102c1000070278000001fd008101fd00cd000700e2
:102c200087027800850372000778a3000500320050
:102c30000001fd008101fd00e00007004f04780065
:102c400000000600850372000748a300030032005d
:102c5000f0ff2f00f1ff2700f8ff370000002000f1
:102c600001f8270088807000f4ff370088017800a1
:102c70004848dd00808171004848de00c850dd0012
:102c800001007000c850de00060478000b017800d7
:102c90008600070088807000d2ff37000500e00042
:102ca0000500320017002000cd0007009dff37000f
:102cb00081037000f9ff3a00860078004f06780023
:102cc0004f05be004f04be000000050083037100e5
:102cd000f9ff320027002000c100070094ff3700f1
:102ce00001f8270086807000f4ff3700020007001b
:102cf0000200be000000060002025000838258005d
:102d000061003900030371006200320005037200a4
:102d1000590032000300e0005500330017003a006c
:102d20000100e0004b0032000208e1000600310023
:102d3000110009004288d800010178008001eb00f1
:102d40008000eb00000006006110e1005500320039
:102d50000002be00110009008280d80080027800c5
:102d600004007800110009004288d80001017800b1
:102d70008001eb008500780000000600889fbe00ff
:102d80008a9fbe008c9fbe000386cf000c06e90020
:102d90008c1f78008c19dd00f00216000512de0091
:102da000848171000c11dd000003be008004eb0083
:102db000053cde008c3bdd000532de0084837300c1
:102dc0000c33dd000700780088007800110009004e
:102dd0004388d8000202b8000306b8008c82420083
:102de00060854e008005eb000402530085825b0085
:102df0000a055c008b855c000b0033008000eb0053
:102e00004f0678000c21de00700516000a2ddd004b
:102e10000a0171008c29de004f06be004f05be007e
:102e20004f04be00000006000202420083824a00f6
:102e300060054d00e0854d000000e9000b00e0005a
:102e4000eeff3d000202420083824a000000e900da
:102e5000eaff37000000e000120032001100090014
:102e60000280d800010178008000eb00000006001d
:102e70000401be00010037006011b80010002000fe
:102e80008000eb00000006000001be006000b800fa
:102e9000000006000001be00f0ff2f00f1ff2f0030
:102ea000000006006011b800000006000100e0000c
:102eb00026003200610111007810e10023003c007f
:102ec0006022b8007010e100040035008002780034
:102ed000010078008000eb00700151000200e0006a
:102ee0000900340070031100062add00822ade008a
:102ef0008603dd00878272000200de00860bdd00a3
:102f0000070070008208de0084817100f4ff270052
:102f100004826200848171000400280084826200bf
:102f20006102600005f0a600000006000482710046
:102f3000070032000000e800e080480000000600c2
:102f40000002be006000b800efff37006000b8006c
:102f5000000006002700200001f0a7001700200055
:102f6000470bde00f60fb200040032000643e80013
:102f70000a0032004702b300000006000103780097
:102f8000f607b2000603700002003a000703b30020
:102f9000000006008702b30000000600010378006d
:102fa000f607b20006037000020032000770a000ae
:102fb000000006000760a000000006000478a300df
:102fc000040032000578a300030032000168a3006a
:102fd00001003a000200be000160a00000000600ef
:102fe000889fbe000004eb006138e10016003a0043
:102ff0000100e00008003a00c800de004800dd00e3
:10300000880020000100e00003003a00c800de0054
:103010004800dd00680444008184cf00e984540046
:10302000060034008908dd00f08314008703de0009
:10303000878070000900dd0009044400610214006b
:103040004f04be00000006000300e00008003a0044
:10305000c811de004811dd00880020000300e000f8
:1030600003003a00c811de004811dd006804440086
:103070008384cf00e9845400060034008919dd0000
:10308000f08314008713de00878171000911dd00d1
:0c30900009044400e1021400e9ff3700cd
:020000040000fa
:0200000401f009
:04000c0079ff000078
:020000040000fa
:0200000401f009
:04001000bfff00002e
:020000040000fa
:0200000401f009
:040014007fff00006a
:020000040000fa
:0200000401f009
:04001c00dfff000002
:020000040000fa
:1000080028610000286100002861000028610000c4
:1000180028610000286100002861000028610000b4
:1000280028610000286100002861000028610000a4
:100038002861000028610000286100002861000094
:100048002861000028610000286100002861000084
:100058002861000028610000286100002861000074
:100068002861000028610000286100007454000025
:100078002861000028610000286100002861000054
:100088002861000028610000286100002861000044
:100098002861000028610000286100002861000034
:1000a8002861000028610000286100002861000024
:1000b8002861000028610000286100002861000014
:1000c8002861000028610000286100002861000004
:1000d80028610000286100002861000028610000f4
:1000e80028610000286100002861000028610000e4
:1000f80028610000286100002861000028610000d4
:1001080028610000286100002861000028610000c3
:1001180028610000286100002861000028610000b3
:1001280028610000286100002861000028610000a3
:100138002861000028610000286100002861000093
:100148002861000028610000286100002861000083
:100158002861000028610000286100002861000073
:100168002861000028610000286100002861000063
:100178002861000028610000286100002861000053
:100188002861000028610000286100002861000043
:100198002861000028610000286100002861000033
:1001a8002861000028610000286100002861000023
:1001b8002861000028610000286100002861000013
:1001c8002861000028610000286100002861000003
:1001d80028610000286100002861000028610000f3
:1001e80028610000286100002861000028610000e3
:0801f8002861000028610000ed
:020000040000fa
:1002080028610000286100002861000028610000c2
:1002180028610000286100002861000028610000b2
:1002280028610000286100002861000028610000a2
:100238002861000028610000286100002861000092
:100248002861000028610000286100002861000082
:100258002861000028610000286100002861000072
:100268002861000028610000286100007454000023
:100278002861000028610000286100002861000052
:100288002861000028610000286100002861000042
:100298002861000028610000286100002861000032
:1002a8002861000028610000286100002861000022
:1002b8002861000028610000286100002861000012
:1002c8002861000028610000286100002861000002
:1002d80028610000286100002861000028610000f2
:1002e80028610000286100002861000028610000e2
:1002f80028610000286100002861000028610000d2
:1003080028610000286100002861000028610000c1
:1003180028610000286100002861000028610000b1
:1003280028610000286100002861000028610000a1
:100338002861000028610000286100002861000091
:100348002861000028610000286100002861000081
:100358002861000028610000286100002861000071
:100368002861000028610000286100002861000061
:100378002861000028610000286100002861000051
:100388002861000028610000286100002861000041
:100398002861000028610000286100002861000031
:1003a8002861000028610000286100002861000021
:1003b8002861000028610000286100002861000011
:1003c8002861000028610000286100002861000001
:1003d80028610000286100002861000028610000f1
:1003e80028610000286100002861000028610000e1
:0803f8002861000028610000eb
:020000040000fa
:10309c00ffff0000ffff0000ffff0000ffff00002c
:1030ac00ffff0000ffff0000ffff0000ffff00001c
:1030bc00ffff0000ffff0000ffff0000ffff00000c
:1030cc00ffff0000ffff0000ffff0000ffff0000fc
:1030dc000001000002030000ff04000005060000d0
:1030ec0007080000090a00000b0c00000d0e000080
:1030fc000f10000011120000131400001516000030
:10310c0017180000191a00001b1c00001d1e0000df
:10311c001f2000002122000023240000252600008f
:10312c0027280000292a00002b2c00002d2e00003f
:10313c002f300000313200003334000035360000ef
:10314c0037380000393a00003b3c00003d3e00009f
:10315c003f4000004142000043440000454600004f
:10316c0047480000494a00004b4c00004d4e0000ff
:10317c004f500000515200005354000055560000af
:10318c0057580000595a00005b5c00005dff0000be
:10319c005e5f000060610000626300006465000017
:1031ac0066670000686900006a6b00006cff000035
:1031bc00ffff0000ffff0000ffff0000ffff00000b
:1031cc00ffff0000ffff0000ffff0000ffff0000fb
:1031dc00ffff0000ffff0000ffff0000ffff0000eb
:1031ec00ffff0000ffff0000ffff0000ffff0000db
:1031fc00ffff0000ffff0000ffff0000ffff0000cb
:10320c00ffff0000ffff0000ffff0000ffff0000ba
:10321c00ffff0000ffff0000ffff0000ffff0000aa
:10322c00ffff0000ffff0000ffff0000ffff00009a
:10323c00ffff0000ffff0000ffff0000ffff00008a
:10324c00ffff0000ffff0000ffff0000ffff00007a
:10325c00ffff0000ffff0000ffff0000ffff00006a
:10326c00ffff0000ffff0000ffff0000ffff00005a
:10327c00ffff0000ffff0000ffff0000ffff00004a
:10328c00ffff0000ffff0000ffff0000ffff00003a
:10329c000000000000000000000000000000000022
:1032ac000000000000000000000000000000000012
:1032bc000000000000000000000000000000000002
:1032cc0000000000000000003c3c00003c3c000002
:1032dc003c3c00003c3c0000003c00003c3c00003e
:1032ec003c0000000018000018180000181800001e
:1032fc00180000000000000018180000000000007a
:10330c006666000066660000000000000000000019
:10331c00000000000000000000000000002400007d
:10332c00240000000000000000000000000000006d
:10333c0000000000000000007eff0000ffff000006
:10334c007eff0000ffff00007eff0000ffff00007b
:10335c007e000000002400007e24000024240000d5
:10336c007e240000242400007e24000000000000c5
:10337c000070000070720000070e00001c38000086
:10338c0070e000004e0e00000e0000000000000077
:10339c002000000002040000081000002040000083
:1033ac000004000000000000383c00007c7c0000a1
:1033bc007cfc0000eeef0000efff0000ff7e000041
:1033cc000000000000180000281000002828000051
:1033dc0044440000464400003a0000000000000095
:1033ec0038380000383800000000000000000000f1
:1033fc0000000000000000000000000000100000b1
:10340c0010000000000000000000000000000000a0
:10341c0000000000000000001e3e00007e70000056
:10342c007070000070700000707000007e3e000034
:10343c001e000000001c00002020000020200000c6
:10344c002020000020200000201c000000000000b4
:10345c00787c00007e0e00000e0e00000e0e0000a8
:10346c000e0e00007e7c000078000000003800008a
:10347c000404000004040000040400000404000020
:10348c000438000000000000387c0000fefe000044
:10349c00feee000000000000000000000000000034
:1034ac0000000000001000007c2800004400000018
:1034bc000000000000000000000000000000000000
:1034cc00000000000038000038fe0000fefe000086
:1034dc003838000000000000000000000000000070
:1034ec0000000000101000007c1000001000000014
:1034fc0000000000000000000000000000000000c0
:10350c0000000000000000003c3c00003c3c0000bf
:10351c003800000000000000000000000000000067
:10352c00000000000018000018100000000000004f
:10353c00000000000000000000ff0000ffff000082
:10354c00000000000000000000000000000000006f
:10355c0000000000000000007e00000000000000e1
:10356c00000000000000000000000000000000004f
:10357c000000000000000000003c00003c3c00008b
:10358c003c000000000000000000000000000000f3
:10359c0000000000000000001818000000000000ef
:1035ac0000070000070f00000e1c00001c38000074
:1035bc0038700000f0e00000e000000000000000a7
:1035cc000204000004080000081000001020000095
:1035dc0020400000000000007eff0000ffe700001c
:1035ec00efff0000fff70000e7e70000ffff00001f
:1035fc007e000000003c000042420000464a0000f1
:10360c005262000042420000423c000000000000f8
:10361c003c7c0000fcfc00005c1c00001c1c00003e
:10362c001c1c0000ffff0000ff0000000038000021
:10363c00684800000808000008080000080800009e
:10364c00087e0000000000003e7f0000ffe7000045
:10365c00470700000e1c000038700000ffff000040
:10366c00ff000000003c000062420000020200006b
:10367c000408000010200000407e00000000000044
:10368c00feff0000ff070000077f00007e7f0000a8
:10369c0007070000ffff0000fe000000007c000098
:1036ac0002020000020400003804000002020000c4
:1036bc00027c000000000000040e00001e3e000012
:1036cc007eff0000ffff00000e0e00000e0e00003b
:1036dc000e000000000400000c1400002444000044
:1036ec007e0400000404000004040000000000003c
:1036fc00ffff0000ffe00000fcfe0000ff0f0000d9
:10370c00070f0000fffe0000fc000000007e000020
:10371c00404000004078000004020000020200005b
:10372c000478000000000000fefe0000fee0000037
:10373c00e0fe0000ffff0000e7e70000ffff0000d5
:10374c007e000000003c00004040000040400000b3
:10375c007c42000042420000423c0000000000009d
:10376c00ffff0000ff070000070e00000e1c00000a
:10377c001c3800003870000070000000007e000053
:10378c0002020000020400000408000008100000ff
:10379c0010200000000000003c7e0000ffe700004d
:1037ac00e7ff00007eff0000e7e70000ff7e00005f
:1037bc003c000000003c000042420000424200007d
:1037cc003c42000042420000423c0000000000006d
:1037dc007eff0000ffe70000e7ff0000ff7f000016
:1037ec00070700007f7f00007f000000003c000006
:1037fc0042420000424200003e0200000202000071
:10380c00023c000000000000000000003c3c0000f6
:10381c003c3c0000000000003c3c00003c3c000034
:10382c00000000000000000000180000180000005c
:10383c00000000000018000018000000000000004c
:10384c00000000003c3c00003c3c0000000000007c
:10385c003c3c00003c3c0000380000000000000034
:10386c000018000018000000000000000018000004
:10387c00181000000000000000000000040e000002
:10388c001c38000070e00000703800001c0e0000b6
:10389c0004000000000000000004000008100000fc
:1038ac002040000020100000080400000000000070
:1038bc0000000000007e00007e7e0000007e000004
:1038cc007e7e0000000000000000000000000000f0
:1038dc00000000003c000000000000003c00000064
:1038ec00000000000000000000000000207000003c
:1038fc00381c00000e0700000e1c00003870000081
:10390c002000000000000000002000001008000053
:10391c000402000004080000102000000000000059
:10392c003cfe0000ffe70000e70e00001c38000022
:10393c00380000003838000038000000003c00005f
:10394c0042420000020400000810000000000000c9
:10395c000010000000000000183c00007eff00007a
:10396c00ffff0000ffff0000fffe00007c3e000098
:10397c001e0000000018000024420000424200001b
:10398c004a520000524c0000201e000000000000b3
:10399c007eff0000ffff0000e7ff0000ffff0000bc
:1039ac00e7e70000e7e70000e7000000003c00004c
:1039bc0066420000424200007e420000424200008b
:1039cc004242000000000000feff0000ffe7000084
:1039dc00e7ff0000ffff0000e7e70000ffff00002b
:1039ec00fe000000007c0000464200004242000045
:1039fc007c42000042420000467c000000000000b7
:103a0c007fff0000fff70000e0e00000e0e00000b6
:103a1c00e0f70000ffff00007f000000003e000008
:103a2c006240000040400000404000004040000068
:103a3c00623e000000000000feff0000ffef0000ef
:103a4c00e7e70000e7e70000e7ef0000ffff0000fa
:103a5c00fe000000007c00004642000042420000d4
:103a6c004242000042420000467c00000000000080
:103a7c00ffff0000ffe00000e0fe0000fefe000083
:103a8c00e0e00000ffff0000ff000000007e0000ef
:103a9c0040400000404000007c40000040400000de
:103aac00407e000000000000ffff0000ffe000006f
:103abc00e0fe0000fefe0000e0e00000e0e00000a0
:103acc00e0000000007e000040400000404000008c
:103adc007c4000004040000040400000000000001e
:103aec007fff0000fff00000e0ef0000efef0000b0
:103afc00e7f70000ffff00007f000000003e000021
:103b0c00604000004040000046420000424200007d
:103b1c00623e000000000000e7e70000e7e700005d
:103b2c00e7ff0000ffff0000e7e70000e7e7000009
:103b3c00e700000000420000424200004242000048
:103b4c007e420000424200004242000000000000a1
:103b5c00fefe0000fe380000383800003838000047
:103b6c0038380000fefe0000fe000000007c000063
:103b7c0010100000101000001010000010100000b9
:103b8c00107c000000000000ffff0000ff1c000084
:103b9c001c1c00001c1c00001c3c0000fcfc000059
:103bac00f8000000007e0000080800000808000073
:103bbc000808000008080000187000000000000051
:103bcc00e7ef0000fffe0000fcf80000f0f800003a
:103bdc00fcfe0000ffef0000e700000000420000c8
:103bec004448000050600000406000005048000055
:103bfc004442000000000000e0e00000e0e00000b3
:103c0c00e0e00000e0e00000e0e00000ffff00006a
:103c1c00ff00000000400000404000004040000059
:103c2c004040000040400000407e000000000000ca
:103c3c00e7ff0000ffff0000ffe70000e7e70000e0
:103c4c00e7e70000e7e70000e700000000420000a3
:103c5c00665a00004242000042420000424200000c
:103c6c004242000000000000e7f70000ffff0000e8
:103c7c00ffff0000efe70000e7e70000e7e70000c8
:103c8c00e700000000420000625200004a460000bb
:103c9c00424200004242000042420000000000008c
:103cac007eff0000ffe70000e7e70000e7e7000009
:103cbc00e7e70000ffff00007e000000003c000072
:103ccc0042420000424200004242000042420000d8
:103cdc00423c000000000000feff0000ffe7000077
:103cec00e7ff0000fffe0000e0e00000e0e0000065
:103cfc00e0000000007e0000424200004242000052
:103d0c007e400000404000004040000000000000e9
:103d1c007eff0000ffe70000e7e70000e7e7000098
:103d2c00ffff00007f07000007000000003c0000c0
:103d3c00424200004242000042420000423c00006d
:103d4c000202000000000000feff0000ffe7000080
:103d5c00e7ff0000fffe0000f8fc0000eee70000ab
:103d6c00e3000000007e00004242000042420000de
:103d7c007e6000005048000044420000000000003b
:103d8c00ffff0000ffe00000f0fe0000ff7f0000de
:103d9c000f070000ffff0000ff000000007e000086
:103dac0040400000406000003c06000002020000a1
:103dbc00027e000000000000fefe0000fe38000045
:103dcc003838000038380000383800003838000027
:103ddc0038000000007c00001010000010100000e3
:103dec001010000010100000101000000000000067
:103dfc00e7e70000e7e70000e7e70000e7e700007f
:103e0c00e7e70000ff7e00003c00000000420000dd
:103e1c004242000042420000424200004242000086
:103e2c00423c000000000000e7e70000e7e700006c
:103e3c00e7e70000e7fe00007e7e00007e3c00000d
:103e4c003c000000004200004242000042420000e0
:103e5c004224000024240000181800000000000078
:103e6c00e7e70000e7e70000e7e70000e7e700000e
:103e7c00ffff0000ffff0000e70000000042000011
:103e8c00424200004242000042420000425a0000fe
:103e9c006642000000000000e7e70000e7ff0000ba
:103eac00ffff00007fff0000ffff0000e7e70000be
:103ebc00e70000000042000042420000663c0000a7
:103ecc00183c000066420000424200000000000066
:103edc00eeee0000fefe00007c38000038380000da
:103eec00383800003838000038000000004400006a
:103efc0044280000101000001010000010100000ea
:103f0c001010000000000000ffff0000ff07000081
:103f1c00070e00001c38000070e00000ffff0000de
:103f2c00ff000000007e00000202000002040000fe
:103f3c000810000020400000407e0000000000003f
:103f4c007e7e00007e7000007070000070700000bb
:103f5c00707000007e7e00007e000000003c0000bf
:103f6c002020000020200000202000002020000045
:103f7c00203c00000000000000e00000e0f0000029
:103f8c0070380000381c00001c0e00000f070000e9
:103f9c00070000000000000040200000201000007e
:103fac0010080000080400000402000000000000db
:103fbc007e7e00007e0e00000e0e00000e0e000035
:103fcc000e0e00007e7e00007e000000003c000013
:103fdc0004040000040400000404000004040000b5
:103fec00043c0000000000003c7e00007e7e0000cf
:103ffc0000000000000000000000000000000000b5
:10400c000000000000180000240000000000000068
:10401c000000000000000000000000000000000094
:10402c000000000000000000000000000000000084
:10403c0000000000ffff0000ff0000000000000077
:10404c000000000000000000000000000000000064
:10405c00007e000000000000303800001c0c000046
:10406c000000000000000000000000000000000044
:10407c00000000000010000008000000000000001c
:10408c000000000000000000000000000000000024
:10409c0000000000000000007cfc0000feee0000b0
:1040ac00fefe0000ffff0000ff000000000000000b
:1040bc00000000000038000044040000043c000034
:1040cc00447a00000000000000e00000e0e0000086
:1040dc00e0fe0000ffff0000f7e70000ffff00001c
:1040ec007e00000000000000404000004040000046
:1040fc005c62000042420000423c000000000000f4
:10410c0000000000000000003f7f0000fff00000f6
:10411c00e0f00000ff7f00003f0000000000000006
:10412c0000000000001e0000204000004040000085
:10413c00201e000000000000000700000707000020
:10414c00077f0000ffff0000efe70000ffff00000b
:10415c007e000000000000000202000002020000cd
:10416c003a46000042420000423c000000000000c1
:10417c0000000000000000007eff0000ffe70000d0
:10418c00ffff0000ffff00007f00000000000000a8
:10419c0000000000003c000042420000425c0000b5
:1041ac00403e0000000000003f7f0000fff00000d8
:1041bc00e0fe0000fefe0000e0e00000e0e0000099
:1041cc00e0000000001e0000204000004040000005
:1041dc007c40000040400000404000000000000017
:1041ec007cfe0000ffef0000e7ff0000ff7f0000f7
:1041fc00070f0000fffe0000fc000000003800006c
:10420c0044420000424200003e0200000202000054
:10421c000478000000000000e0e00000e0e0000096
:10422c00e0fc0000feff0000efe70000e7e7000005
:10423c00e70000000040000040400000404000004b
:10424c00784400004242000042420000000000009e
:10425c001c1c00001c0000001c1c00001c1c00008e
:10426c001c1c00001c1c00001c00000000080000ae
:10427c00000000000008000008080000080800000a
:10428c0008080000000000001c1c00001c000000be
:10429c001c1c00001c1c00001c3c0000fcfc000052
:1042ac00f000000000080000000000000008000002
:1042bc000808000008080000106000000000000062
:1042cc0000e20000e7ee0000fcf80000f0f0000057
:1042dc00f8fc0000eee70000e20000000000000027
:1042ec00424400004850000060600000504800004c
:1042fc004442000000000000f0f00000f0700000ec
:10430c007070000070700000707800007f3f00003b
:10431c001f00000000600000202000002020000092
:10432c002020000020200000100e000000000000e3
:10433c000000000000000000e7ff0000ffff00008d
:10434c00ffe70000e7e70000e700000000000000c6
:10435c000000000000420000665a000042420000cb
:10436c0042420000000000000000000000000000bd
:10437c00007e0000ffff0000e7e70000e7e7000019
:10438c00e70000000000000000000000000000003a
:10439c003c4200004242000042420000000000008b
:1043ac000000000000000000007e0000ffff000085
:1043bc00e7e70000ffff00007e00000000000000a7
:1043cc0000000000000000003c42000042420000df
:1043dc00423c0000000000003c7e0000ffe70000b3
:1043ec00e7ff0000fffe0000e0e00000e0e000005e
:1043fc00e0000000003c000042420000424200008d
:10440c007c400000404000004040000000000000e4
:10441c003c7e0000ffe70000e7ff0000ff7f00008c
:10442c00070700000707000007000000003c000021
:10443c0042420000424200003e0200000202000024
:10444c00030200000000000000000000000000005b
:10445c00003f00007fff0000f0e00000e0e0000003
:10446c00e000000000000000000000000000000060
:10447c001e200000404000004040000000000000f2
:10448c0000000000000000007fff0000fffe0000a5
:10449c00ff7f0000ffff0000ff0000000000000095
:1044ac0000000000003e0000404000003c02000004
:1044bc00027e00000000000000e00000e0e00000d0
:1044cc00e0fc0000fcfc0000e0f00000fefe000040
:1044dc007e00000000000000404000004040000052
:1044ec007840000040400000603c000000000000ec
:1044fc000000000000000000e7e70000e7e7000014
:10450c00e7e70000ffff00007e0000000000000055
:10451c000000000000420000424200004242000045
:10452c00423c000000000000000000000000000001
:10453c00e7e70000e7e70000e7ff0000ff7e000070
:10454c003c000000000000000000000000420000e1
:10455c00424200004242000024180000000000000b
:10456c000000000000000000e7e70000e7e70000a3
:10457c00ffff0000ffff0000e7000000000000004c
:10458c00000000000042000042420000425a0000bd
:10459c006642000000000000000000000000000067
:1045ac00e7e70000ffff00007eff0000e7e70000e8
:1045bc00e7000000000000000000000000420000c6
:1045cc0042240000182400004242000000000000b9
:1045dc00e7e70000e7e70000ffff0000ff0700002f
:1045ec00070f0000fffe0000fc000000004200006e
:1045fc0042420000427c0000020200000202000065
:10460c0004780000000000000000000000ff000023
:10461c00ffff00000e1c000038700000ffff0000c0
:10462c00ff00000000000000000000007e020000ff
:10463c000408000010200000407e00000000000074
:10464c00003f00007f7f000070f00000f0f00000e1
:10465c00f07000007f7f00003f00000000000000b1
:10466c001e20000020200000404000002020000000
:10467c00201e000000000000003800003838000048
:10468c00383800003838000038380000383800005e
:10469c003800000000000000101000001010000096
:1046ac00101000001010000010100000000000009e
:1046bc0000fc0000fefe00000e0f00000f0f0000bb
:1046cc000f0e0000fefe0000fc00000000000000c9
:1046dc00780400000404000002020000040400003e
:1046ec000478000000000000001000003a7f000079
:1046fc002e0400000000000000000000000000007c
:10470c000000000000000000102a0000040000005f
:10471c00000000000000000000000000000000008d
:10472c00007e00007e7e00007e7e00007e7e00000b
:10473c007e7e00007e7e00007e00000000000000f7
:10474c003c3c00003c3c00003c3c00003c3c00007d
:10475c003c3c00000000000000000000007e000057
:10476c007e7e00007e7e00007e7e00007e7e00004d
:10477c007e00000000000000000000003c3c000037
:10478c003c3c00003c3c00003c3c000000000000b5
:10479c000000000000000000007e00007e7e000093
:1047ac007e7e00007e7e00007e0000000000000087
:1047bc0000000000000000003c3c00003c3c0000fd
:1047cc003c3c000000000000000000000000000065
:1047dc0000000000007e00007e7e00007e7e000057
:1047ec007e0000000000000000000000000000003f
:1047fc00000000003c3c00003c3c000000000000bd
:10480c00001800007e7e00007e7e00007e7e000090
:10481c007e7e00007e7e00007e0000000000000016
:10482c00003c00003c3c00003c3c00003c3c0000d8
:10483c003c3c0000000000000000000000180000dc
:10484c007e7e00007e7e00007e7e00007e7e00006c
:10485c007e0000000000000000000000003c000092
:10486c003c3c00003c3c00003c3c000000000000d4
:10487c000000000000000000001800007e7e000018
:10488c007e7e00007e7e00007e00000000000000a6
:10489c000000000000000000003c00003c3c000058
:1048ac003c3c000000000000000000000000000084
:1048bc0000000000187e00007e7e00007e7e00005e
:1048cc007e0000000000000000000000000000005e
:1048dc00000000003c3c00003c3c000000000000dc
:1048ec0000000000000000000000000000000000bc
:1048fc00187e00007e7e00007e000000000000009c
:10490c00000000000000000000000000000000009b
:10491c003c3c000000000000003c00003c3c00005f
:10492c003c3c00003c3c00003c3c00007e7e000017
:10493c003c000000000000001808000018080000ef
:10494c0018080000180800003c3c000000000000a3
:10495c0000ff0000ffff0000ff1f00001f00000011
:10496c00000000000000000000000000000000003b
:10497c006e680000080e000000000000000000003f
:10498c00000000000000000000ff0000ffff00001e
:10499c00ff1f00001f1f00001f0000000000000090
:1049ac000000000000000000696a00000c0c000010
:1049bc000a090000000000000000000000000000d8
:1049cc0000ff0000ffff0000ff1f00001f1c000085
:1049dc001c1c000000000000000000000000000093
:1049ec006e680000080e00000808000008000000b7
:1049fc0000000000000000000000000000000000ab
:104a0c00007800007c7e00007e7e00007e7e000030
:104a1c007e0000000000000000000000000000000c
:104a2c00383c00003c3c00003c3c00000000000016
:104a3c0000000000003e00007f7f00007f7f000030
:104a4c007f3e00000000000000000000000000009d
:104a5c000000000036360000323e00003e00000030
:104a6c000000000000000000ffff0000ffff00003e
:104a7c00ffff0000ffff0000ffff0000ffff000032
:104a8c00ffff0000ffff0000ffff0000ffff000022
:104a9c00ffff0000ffff0000ffff0000ffff000012
:104aac00ffff0000ffff00000001000002030000f8
:104abc00ffff0000ff0400000506000007080000cf
:104acc00090a00000b0c00000d0e00000f10000076
:104adc0011120000131400001516000017ff00003f
:104aec00181900001a1b0000ff1c00001d1e0000fe
:104afc001f20000021220000232400002526000096
:104b0c0027280000292a00002b2c00002d2e000045
:104b1c002f300000313200003334000035360000f5
:104b2c0037380000ff390000ffff0000ffff0000d6
:104b3c00ffff0000ffff0000ffff0000ffff000071
:104b4c00ffff0000ffff0000ffff0000ffff000061
:104b5c00ffff0000ffff0000ffff0000ffff000051
:104b6c00ffff0000ffff00003a3b00003c3d00004f
:104b7c003e3f000040410000ffff0000ffff00002f
:104b8c00ffff0000ffff0000ffff0000ffff000021
:104b9c00ffff0000ffff0000ffff0000ffff000011
:104bac00ffff0000ffff0000ffff0000ffff000001
:104bbc00ffff0000ffff0000ffff0000ffff0000f1
:104bcc00ffff0000ffff0000ffff0000ffff0000e1
:104bdc00ffff0000ffff0000ffff0000ffff0000d1
:104bec00ffff0000ffff0000ffff0000ffff0000c1
:104bfc00ffff0000ffff0000ffff0000ffff0000b1
:104c0c00ffff0000ffff0000ffff0000ffff0000a0
:104c1c00ffff0000ffff0000ffff0000ffff000090
:104c2c00ffff0000ffff0000ffff0000ffff000080
:104c3c00ffff0000ffff0000ffff0000ffff000070
:104c4c00ffff0000ffff0000ffff0000ffff000060
:104c5c00ffff0000ffff0000ffff0000ffff000050
:104c6c00ffff0000ffff000000000000000000003c
:104c7c000000000000000000000000000000000028
:104c8c000000000000000000383800003838000038
:104c9c003838000038000000001000001010000030
:104cac00001000000000000044ee0000ee44000084
:104cbc000000000000000000004400004400000060
:104ccc000000000000000000287c0000fe7c0000ba
:104cdc00fe7c000028000000002800007c2800005a
:104cec007c28000000000000103800003810000084
:104cfc000000000000000000001000001000000088
:104d0c00000000000000000010380000707000006f
:104d1c00703800001000000000100000202000007f
:104d2c002010000000000000207000003838000047
:104d3c00387000002000000000200000101000005f
:104d4c001020000000000000287c0000387c0000cf
:104d5c0028000000000000000028000010280000bf
:104d6c00000000000000000038380000fefe0000cb
:104d7c00fe3800003800000000100000107c00001d
:104d8c001010000000000000000000007878000007
:104d9c0078780000380000000000000000300000af
:104dac00301000000000000000000000fefe0000bb
:104dbc00fe0000000000000000000000007c00006d
:104dcc00000000000000000000000000007800005f
:104ddc00787800007800000000000000000000005f
:104dec003030000000000000040e00001c380000f1
:104dfc0070e00000400000000004000008100000fb
:104e0c0020400000000000007cfe0000fefe0000c0
:104e1c00fefe00007c00000000380000445400003e
:104e2c0044380000000000003c7c0000fcfc00004a
:104e3c00fefe0000fe0000000018000028480000e4
:104e4c00087c000000000000fcfe0000fefe0000dc
:104e5c00fefe0000fe000000007800000478000058
:104e6c00407c000000000000fefe0000fe7e000002
:104e7c00fefe0000fe000000007c0000043c000070
:104e8c00047c000000000000eeee0000fefe0000be
:104e9c007e0e00000e00000000440000443c0000a8
:104eac000404000000000000fcfe0000fefe0000f8
:104ebc00fefe0000fc000000007c000040780000ba
:104ecc000478000000000000fefe0000fefe000062
:104edc00fefe0000fe000000007c0000407c000094
:104eec00447c000000000000fefe0000fe380000c4
:104efc0070e00000c0000000007c00000810000002
:104f0c0020400000000000007cfe0000fefe0000bf
:104f1c00fefe00007c00000000380000447c000015
:104f2c004438000000000000fefe0000fefe000001
:104f3c00fe7e00007e000000007c0000447c00002f
:104f4c00043c000000000000787800007878000035
:104f5c00787800007800000000300000300000007d
:104f6c003030000000000000081c00003870000009
:104f7c00381c000008000000000800001020000091
:104f8c001008000000000000fefe0000fe00000003
:104f9c00fefe0000fe000000007c0000000000008f
:104fac00007c00000000000020700000381c000095
:104fbc0038700000200000000020000010080000e5
:104fcc0010200000000000007cfe0000fefe00002f
:104fdc003c38000038000000003800004418000085
:104fec000010000000000000fefe0000fefe0000ad
:104ffc00feee0000ee000000007c0000447c00008f
:10500c004444000000000000fcfe0000fefe000016
:10501c00fefe0000fc00000000780000447c000054
:10502c004478000000000000fefe0000fee00000de
:10503c00fefe0000fe000000007c0000404000006e
:10504c00407c000000000000fcfe0000feee0000b2
:10505c00fefe0000fc00000000780000444400004c
:10506c004478000000000000fefe0000fefc000082
:10507c00fefe0000fe000000007c000040780000f6
:10508c00407c000000000000fefe0000fefc000062
:10509c00fce00000e0000000007c00004078000014
:1050ac004040000000000000fefe0000fefe00007c
:1050bc00fefe0000fe000000007c0000405c0000d2
:1050cc00447c000000000000eeee0000fefe00003c
:1050dc00feee0000ee00000000440000447c0000e6
:1050ec004444000000000000fefe0000fe380000fa
:1050fc00fefe0000fe000000007c0000101000000e
:10510c00107c000000000000fefe0000fe1c0000f1
:10511c00fcfc0000fc000000007c00000808000003
:10512c000878000000000000e6ee0000fcf800002b
:10513c00fcee0000e6000000004400004870000097
:10514c004844000000000000e0e00000e0e0000047
:10515c00fefe0000fe000000004000004040000089
:10516c00407c0000000000006cfe0000fefe000011
:10517c00fefe0000ee000000002800005454000069
:10518c005444000000000000eefe0000fefe000093
:10519c00fefe0000ee00000000440000645400001d
:1051ac004c44000000000000fefe0000feee00007b
:1051bc00fefe0000fe000000007c000044440000e5
:1051cc00447c000000000000fefe0000fefe00001b
:1051dc00fee00000e0000000007c0000447c0000c9
:1051ec004040000000000000fefe0000feee00004b
:1051fc00fcfe0000f6000000007c000044440000af
:10520c004874000000000000fefe0000fefe0000de
:10521c00fefc0000e8000000007c0000447c000064
:10522c0050480000000000007efe0000fefe000062
:10523c00fefe0000fc000000003c0000407c000072
:10524c000478000000000000fefe0000fe380000a4
:10525c003838000038000000007c000010100000fe
:10526c001010000000000000eeee0000eeee00005a
:10527c00fefe00007c0000000044000044440000de
:10528c004438000000000000eeee0000eefe0000ce
:10529c00fe7c000038000000004400004444000084
:1052ac002810000000000000fefe0000fefe0000c2
:1052bc00fefe00006c00000000540000545400007e
:1052cc005428000000000000eefe0000fe7c0000f0
:1052dc00fefe0000ee00000000440000281000005c
:1052ec002844000000000000eefe0000fe7c0000e0
:1052fc00383800003800000000440000281000007e
:10530c001010000000000000fefe0000fe780000ff
:10531c00fefe0000fe000000007c000008100000f3
:10532c00207c000000000000387c00007870000039
:10533c00787c0000380000000038000020200000bd
:10534c00203800000000000040e000007038000031
:10535c001c0e0000040000000040000020100000a3
:10536c000804000000000000387c00003c1c000019
:10537c003c7c0000380000000038000008080000e9
:10538c0008380000000000000000000000000000d1
:10539c00fefe0000fe000000000000000000000007
:1053ac00007c000000000000103800007cfe0000b3
:1053bc00fe380000380000000010000038540000d7
:1053cc0010100000000000003e3e00001e3e0000d9
:1053dc0076e0000040000000001c00000c140000ef
:1053ec00204000000000000010380000fcfe00000f
:1053fc00fc3800001000000000100000087c0000c9
:10540c00081000000000000040e00000763e0000a4
:10541c001e3e00003e000000004000002014000072
:10542c000c1c00000000000038380000fefe0000dc
:10543c007c38000010000000001000001054000028
:10544c003810000000000000040e0000dcf8000022
:10545c00f0f80000f8000000000400000850000004
:10546c006070000000000000103800007efe00009c
:10547c007e3800001000000000100000207c0000ae
:10548c002010000000000000f8f80000f0f8000008
:10549c00dc0e0000040000000070000060500000f2
:1054ac000804000000000000537500007065000047
:1054bc00722000004f53000044200000763300009f
:1054cc002e3200002d6c0000697400006500000095
:1054dc006473000050490000433300003346000061
:1054ec00207300006964000065000000436f000039
:1054fc00707200002e2000003230000031300000ad
:10550c00205400006f6d0000204f00002e000000a2
:10551c00434f00004d500000494c00004544000032
:10552c00204600004f5200003a200000454e00007b
:10553c00474c0000495300004800000000420000a6
:10554c006f6f0000746900006e670000206b000034
:10555c00657200006e6500006c20000020200000c9
:10556c00205b0000204f00004b2000005d0000007d
:10557c005665000072690000667900002032000058
:10558c0034460000202000002020000020200000d5
:10559c00202000005b2000004f4b0000205d00002d
:1055ac00005600006572000069660000792000005a
:1055bc003333000046200000202000002020000093
:1055cc0020200000205b0000204f00004b2000003a
:1055dc005d000000537700006974000063680000f0
:1055ec00207400006f200000686900002072000029
:1055fc0065730000202000005b2000004f4b000072
:10560c00205d000000560000524100004d200000bb
:10561c00746500007374000020200000202000003e
:10562c002020000020200000205b0000204f000004
:10563c004b2000005d00000056520000414d000060
:10564c00207400006573000074200000202000000e
:10565c002020000020200000202000005b460000dd
:10566c00414900004c5d00000043000068650000eb
:10567c00636b0000206d0000656d00006f72000010
:10568c0079200000736f00006f6e00002120000075
:10569c00202000002020000020000000496e0000a7
:1056ac006974000020550000415200005420000095
:1056bc0020200000202000002020000020200000de
:1056cc005b2000004f4b0000205d0000004c0000f0
:1056dc00617500006e630000686900006e67000071
:1056ec0020680000756400005f640000656d0000b8
:1056fc006f000000504100004e49000043200000a4
:10570c004f4e0000204f0000534400002044000086
:10571c0053500000202100002100000053750000b0
:10572c0070650000722000004f53000044270000f9
:10573c00732000006f6e0000207300006372000085
:10574c00656500006e200000646900007370000045
:10575c006c61000079200000707200006f63000023
:10576c0065730000736f000072200000656e00000e
:10577c00636f0000756e00007465000072650000b8
:10578c00642000006120000066610000746100006c
:10579c006c20000065720000726f00007220000027
:1057ac00636f00006e64000069740000696f000094
:1057bc006e2e0000000000005265000073650000b2
:1057cc0074740000696e000067200000736f0000a5
:1057dc006f6e00002e0000006d6100006c6c00000c
:1057ec006f630000206f000066200000257500002c
:1057fc0020280000307800002578000029200000c7
:10580c00627900007465000073200000666100007e
:10581c00696c00006564000000630000616c0000ae
:10582c006c6f0000632000006f66000020250000f4
:10583c007520000028300000782500007829000031
:10584c00206200007974000065730000206600007f
:10585c00616900006c650000640000007265000066
:10586c00616c00006c6f0000632000006f6600002c
:10587c00202500007520000028300000782500004d
:10588c007829000020620000797400006573000024
:10589c0020660000616900006c6500006420000057
:1058ac00286f00006c64000070740000723d0000f2
:1058bc00257800002900000061730000736500006a
:1058cc007274000020660000616900006c650000c5
:1058dc00643a000020680000616c000069670000f9
:1058ec006e2000003e3d0000202d00003120000005
:1058fc002626000020680000616c0000696700002b
:10590c006e2000003c3d0000203100000000000033
:10591c004f750000746c0000696e00006564000037
:10592c003878000031340000004f0000757400001e
:10593c006c6900006e650000643800007838000067
:10594c0000540000696e00007935000078350000c5
:10595c000000000042000000530000004449000019
:10596c00535000004c41000059200000414c0000f5
:10597c00494700004e20000000000000436f00006b
:10598c006e7300006f6c000065200000696e0000f3
:10599c006974000000000000476f000074200000d4
:0c59ac0064610000746100000000000055
:020000040000fa
:1059b800000178000000e0000e003a00c1ff20005e
:1059c800817f8800c0852200907f8800a17f8800a1
:1059d800b07f880000c32000c07f8800000f20002f
:1059e800307f8800000d2000407f8800527f8800ab
:1059f80011003700e10f50000f003a00c0ff2000ef
:105a0800807f8800c0c22100907f8800c085220066
:105a1800a07f8800c0482300b07f880080612000f4
:105a2800c07f8800000c2000307f8800000820001c
:105a3800407f8800527f8800807f80008000eb00d4
:105a48005e020700907f80008000eb005b02070089
:105a5800a07f80008000eb0058020700b07f800024
:105a68008000eb00550207000000eb00d07f8800a3
